:020000040800F2
:10000000880D0020450100084D0100084F0100083F
:1000100051010008530100085501000800000000CC
:100020000000000000000000000000005701000870
:1000300059010008000000005B0100085D01000894
:100040005F0100085F0100085F010008D119000886
:100050005F0100085F0100085F0100085F01000800
:100060005F0100085F0100085F0100085F010008F0
:100070005F0100085F0100085F0100085F010008E0
:100080005F0100085F0100085F0100085F010008D0
:100090005F0100085F0100085F0100085F010008C0
:1000A0005F0100085F0100085F0100085F010008B0
:1000B000C91F00085F0100085F0100085F01000818
:1000C0005F0100085F0100085F0100085F01000890
:1000D0005F010008DD23000865240008ED24000806
:1000E0005F0100085F0100085F0100085F01000870
:1000F0005F0100085F0100085F0100085F01000860
:100100005F0100085F0100085F0100085F0100084F
:100110005F0100085F0100085F0100085F0100083F
:100120005F0100085F0100085F0100085F0100082F
:10013000DFF80CD000F06CF800480047692B00088D
:10014000880D00200648804706480047FEE7FEE786
:10015000FEE7FEE7FEE7FEE7FEE7FEE7FEE7FEE777
:10016000691F00083101000840EA01039B0703D022
:1001700009E008C9121F08C0042AFAD203E011F8E6
:10018000013B00F8013B521EF9D27047D2B201E0A8
:1001900000F8012B491EFBD270470022F6E710B58C
:1001A00013460A4604461946FFF7F0FF204610BDE5
:1001B00030B505462A460B4612F8010B13F8014BE1
:1001C00008B1A042F8D01CB1002802D06D1CF1E7A4
:1001D000284630BD421C10F8011B0029FBD1801AB3
:1001E000704730B50B46014600202022012409E06B
:1001F00021FA02F59D4205D303FA02F5491B04FAE0
:1002000002F52844151EA2F10102F1DC30BD000008
:10021000064C074D06E0E06840F0010394E8070053
:1002200098471034AC42F6D3FFF786FFA837000892
:10023000C837000810B5012001F020FA002001F0B5
:100240001DFA10BD08B5014600200090034800903B
:100250000098084400900098008808BD006C004099
:1002600008B500220092044A0092009A02440092CB
:10027000009A116008BD0000006C004010B5052414
:1002800011E00C4A91881068FFF787FF0948016B5D
:1002900009A088470749C822086809A100F09EFC08
:1002A00008B1012010BD2000A4F10101CCB2E8D1B9
:1002B00000BFF7E73000002041540D0A00000000A5
:1002C0004F4B000010B50748016B07A0884732204C
:1002D00002F09CFB0348016B03A08847322002F028
:1002E00095FB10BD300000202B2B2B002DE9FE4389
:1002F00006460F4615464FF002093046FFF76AFFE3
:1003000002903846FFF766FF01902846FFF762FF2C
:10031000009000209949888102980C300199891C2D
:1003200001440098801C0C1810219448828980890F
:10033000401C924B988118468068815400BF20462B
:10034000E21704EB5262D211A4EBC212D1B2E2174F
:1003500004EB5262D411002C01DD41F0800187488A
:1003600082898089401C854B988118468068815419
:10037000002CE4DC0021184682898089401C988189
:100380001846806881540421184682898089401C5F
:1003900098811846806881544D2218468189808949
:1003A000401C988118468068425451221846818921
:1003B0008089401C98811846806842545421184610
:1003C00082898089401C9881184680688154542213
:1003D000184681898089401C98811846806842545B
:1003E0000421184682898089401C988118468068BB
:1003F0008154C222184681898089401C9881184600
:10040000806842540022184681898089401C988166
:100410001846806842543C21184682898089401CD5
:1004200098811846806881549DF809201846818972
:100430008089401C98811846806842549DF80810B5
:10044000184682898089401C9881184680688154AA
:10045000194689681A46928988183146029AFFF728
:1004600083FE46488089029908444449888101985E
:10047000002823DD9DF80510404882898089401CB2
:100480003E4B98811846806881549DF804101846A8
:1004900082898089401C9881184680688154194659
:1004A00089681A46928988183946019AFFF75CFED6
:1004B0003248808901990844304988810098002891
:1004C00023DD9DF801102D4882898089401C2B4B2B
:1004D00098811846806881549DF8001018468289DA
:1004E0008089401C98811846806881541946896823
:1004F0001A46928988182946009AFFF735FE1F4848
:100500008089009908441D4988814FF002094FF005
:1005100000082AE0194A91881068FFF73EFE174A42
:100520009189906800F068FE4FF01E0816E01348AD
:10053000006800781249097888420CD10F48006899
:1005400040780F494978884205D10EA002F026F97B
:100550000120BDE8FE83642002F058FA5FEA08003B
:10056000A8F1010101F0FF08E1D15FEA0900A9F15A
:10057000010101F0FF09CDD100BFEAE768000020CA
:100580009C37000861616161616161616161616104
:10059000616161616161616161616161616161614B
:1005A000616161616161610D0A00000070B505461D
:1005B0000E46052410E0214A91881068FFF7EDFDF2
:1005C0001E48016B1EA088471C49C822086821A14B
:1005D00000F004FB00B104E02000A4F10101CCB262
:1005E000E9D100BF0CB9002070BD02241EE0134AFF
:1005F00091899068FFF7D1FD104A91881068FFF744
:10060000CCFD0E4933462A46886813A102F0D6F87D
:100610000A4A9068116B884708494FF4FA520868F3
:100620000CA100F0DBFA08B10120DDE72000A4F105
:100630000101CCB2DBD100BFD6E7000030000020C2
:1006400041542B43574D4F44455F4355523D310D67
:100650000A0000004F4B000041542B43574A4150C1
:100660005F4355523D222573222C222573220D0A09
:1006700000000000F8B505460E4617462849C86A2E
:1006800080474FF4FA7002F0C1F902241EE0244AB8
:1006900091881068FFF781FD214A91899068FFF7E2
:1006A0007CFD1F49009733462A4688681DA102F049
:1006B00085F81B4A9068116B884719494FF4FA5224
:1006C00008681FA100F08AFA00B104E02000A4F13C
:1006D0000101CCB2DBD100BF0CB90020F8BD10493C
:1006E000886A804708B90020F8E7022411E00C4A24
:1006F00091881068FFF751FD0948016B12A08847E7
:100700000749C822086814A100F068FA08B101205E
:10071000E4E72000A4F10101CCB2E8D100BFDDE79D
:100720003000002041542B43495053544152543D12
:10073000222573222C222573222C25640D0A000009
:10074000434F4E4E4543540041542B43495053456B
:100750004E440D0A000000003E00000008B50121D3
:10076000082000F07BFF0120ADF8000010208DF87C
:10077000030003208DF802006946044800F049FA9E
:1007800001200349086000F099F808BD000C014001
:100790008081214210B500241548006820F00F0028
:1007A000134908600846006840F00800086004E04B
:1007B000601CC4B2012002F04FF90E48006808B175
:1007C000642CF5DB642C01DB012010BD002404E067
:1007D000601CC4B2012002F03FF90648006808B965
:1007E000642CF5DB642C01DB0120EEE70020ECE754
:1007F000000C01400081214210B5002404E0601C7F
:10080000C4B2012002F028F90D48006808B1642C38
:10081000F5DB002404E0601CC4B2012002F01CF9E6
:100820000748006808B9642CF5DB282002F014F9A9
:100830000348006808B1012010BD0020FCE700005B
:100840000081214270B50024002506E06006040EF8
:10085000FFF7D2FF0443681CC5B2082DF6DB204623
:1008600070BD7CB505460E4600F028F8FFF792FFF4
:10087000F8B9002405E0FFF7E5FF0DF80400601C5F
:10088000C4B2052CF7DB9DF800009DF80110084468
:100890009DF8021008449DF8031008449DF80410C8
:1008A000884208D19DF8000030709DF80200287041
:1008B00001E001207CBD0020FCE7000010B50C48E1
:1008C000006820F00F000A4908600846006840F000
:1008D00003000860002007490860142002F096F821
:1008E00001200549C1F880011E2002F0B5F810BDB5
:1008F000000C0140808121420080214210B502217C
:10090000014800F079FC10BDA037000810B512496D
:10091000C86A80474FF4FA7002F078F810E00E4A87
:1009200091881068FFF739FC0B48016B0BA08847D2
:100930000949C82208680DA100F050F900B104E08F
:100940002000A4F10101CCB2E9D100BF0CB101201B
:1009500010BD0020FCE700003000002041542B4374
:100960004950434C4F53450D0A000000434C4F5330
:100970004544000010B540484FF480733F4A194683
:1009800044693F48A04740B13EA001F007FF4148FD
:100990000078401C3F49087005E03FA001F0FEFED2
:1009A00000203C4908703B480078012814D13248A7
:1009B0003EA1C26940A0904740B141A001F0EEFEC7
:1009C00034480078401C3349087005E041A001F02C
:1009D000E5FE00202F4908702E480078022816D125
:1009E000254840F25B7240A1036A48A0984740B195
:1009F00047A001F0D3FE27480078401C2549087025
:100A000005E049A001F0CAFE0020224908702148F3
:100A1000007803281DD14A484FF48073174A1946BD
:100A200004691748A047464846A24BA143694EA017
:100A3000984740B14FA001F0B1FE16480078401C25
:100A40001449087005E050A001F0A8FE00201149EB
:100A500008701048007804280DD13948012200217F
:100A600083694EA0984718B150A001F097FE02E0AC
:100A700054A001F093FE10BD30000020BC00002007
:100A8000BC0100204E657420496E6974204F4B21D3
:100A90000D0A0000000000204E657420496E697444
:100AA000204572726F72210D0A000000313233341A
:100AB000353633323100000069706F6E650000001A
:100AC000436F6E6E636574204150204F4B210D0AB9
:100AD00000000000436F6E6E636574204150204536
:100AE00072726F72210D0A006E3639667472642E4E
:100AF0006D7174742E696F742E677A2E62616964E9
:100B0000756263652E636F6D0000000054435000F2
:100B1000436F6E6E63657420536572766572204F05
:100B20004B210D0A00000000436F6E6E6365742058
:100B3000536572766572204572726F72210D0A00DC
:100B4000680000204E4B703943576432707A566DFE
:100B50004B64654F000000006E3639667472642F76
:100B600061646D696E00000064616E7069616E6A37
:100B700069000000456E746572204D515454204F39
:100B80004B210D0A00000000456E746572204D5126
:100B90005454204572726F72210D0A002F636169EF
:100BA0002F636F6E74726F6C000000005375627378
:100BB0006372696265546F706963204F4B210D0A3F
:100BC00000000000537562736372696265546F7050
:100BD0006963204572726F72210D0A0070B5054677
:100BE0000E4614460A2094FBF0F084B202E00A207C
:100BF00001F00CFF31462846FFF7DAFA20B9200051
:100C0000A4F101018CB2F2D10CB1012070BD002021
:100C1000FCE72DE9F04102460025002600200023D4
:100C20000024002791F803C00CF00F0591F803C0D1
:100C30000CF0100CBCF1000F03D091F802C04CEA8C
:100C4000050591F800C0BCF1000F31D014680020F8
:100C50002BE04FF0010C0CFA00F3B1F800C00CEAE5
:100C600003069E4220D183004FF00F0C0CFA03F7CD
:100C7000BC4305FA03FC4CEA040491F803C0BCF140
:100C8000280F06D14FF0010C0CFA00FCC2F814C07A
:100C90000AE091F803C0BCF1480F05D14FF0010CF8
:100CA0000CFA00FCC2F810C0401C0828D1D3146014
:100CB000B1F800C0BCF1FF0F34DD546800202EE015
:100CC00000F1080C4FF0010808FA0CF3B1F800C06D
:100CD0000CEA03069E4221D183004FF00F0C0CFA60
:100CE00003F7BC4305FA03FC4CEA040491F803C083
:100CF000BCF1280F05D100F1080C08FA0CF8C2F875
:100D0000148091F803C0BCF1480F07D100F1080C22
:100D10004FF0010808FA0CF8C2F81080401C0828AF
:100D2000CED35460BDE8F0810161704770B50246D2
:100D30000024002500230020958A138B1B0445EA1C
:100D4000030626F07F4404EA01068E4201D1012009
:100D500000E0002070BD21B1028842F00102028053
:100D600004E002884FF6FE731A40028070470000CC
:100D700000B585B00121480500F060FC0121082084
:100D800000F06CFC4020ADF8000003208DF802005C
:100D90001C208DF8030069461248FFF73AFF8020B7
:100DA000ADF8000069460F48FFF733FF0020ADF8AB
:100DB00008004BF6FF70ADF80A001020ADF80C00EB
:100DC0008001ADF80E000001ADF81000064801905A
:100DD00001A9064800F042F801210448FFF7BBFFD3
:100DE00005B000BD000C0140801A06000054004010
:100DF00021B1028842F48072028004E002884FF63A
:100E0000FF631A400280704721B1028842F40072E9
:100E1000028004E002884FF6FF531A4002807047B8
:100E20000CB50246002000230193009300920B0FA3
:100E3000019321F07F41019B1BB1009B1433009370
:100E400003E0090C009B18330093009B1B680B40C8
:100E50000BB1012000E000200CBD00002DE9F043A3
:100E600085B004460D460026B1460427DFF8CC8045
:100E7000A6884FF6C0700640684600F005FCDDF815
:100E800008802F48B8FBF0F01FFA80F946EA0906FF
:100E9000A68020884FF6FE71084020800026294950
:100EA000286888420CD828684000B8FBF0F087B268
:100EB000042F00DA04273E4309F10100208427E0D3
:100EC000E8884BF6FF71884206D1286800EB4000A5
:100ED000B8FBF0F087B209E0286800EBC00101EB35
:100EE0000010B8FBF0F087B247F48047C7F30B005F
:100EF00008B947F0010747F4004006434FF49670E5
:100F000009FB00F04FF47A7190FBF1F0401C208453
:100F1000A683208840F00100208026884FF6F53017
:100F20000640A8886989084306432680A88929893C
:100F30000843208105B0BDE8F083000000127A006C
:100F400040420F00A086010012B141F0010102E011
:100F50004FF6FE731940018270470182704700000E
:100F600070B504460D4600BF4FF400311C48FFF732
:100F700057FF0028F8D101211948FFF739FF00BFBA
:100F800018491748FFF7D2FE0028F9D0002278212F
:100F90001348FFF7D9FF00BF13491148FFF7C6FEFA
:100FA0000028F9D021460E48FFF7D7FF00BF0E49B1
:100FB000891C0B48FFF7BAFE0028F8D029460848DC
:100FC000FFF7CBFF00BF0849891C0548FFF7AEFEBD
:100FD0000028F8D001210248FFF716FF70BD00007D
:100FE0000054004001000300820007002DE9F04199
:100FF00004460D4616461F462048046085808660DC
:101000008781024691881068FFF7C7F81B4A9189CB
:101010009068FFF7C2F81948016B19A088474FF490
:10102000FA6001F0F3FC1549C86A80474FF4FA7082
:1010300001F0ECFC1148016B11A088474FF4487097
:1010400001F0E4FC0D490869804710B90020BDE8B3
:10105000F0810A4A91881068FFF79FF80748016BF2
:101060000AA0884705494FF4FA72086809A1FFF7FA
:10107000B5FD08B90020EAE70120E8E730000020CC
:1010800041542B5253540D0A000000004154453086
:101090000D0A00004F4B00002DE9F04104460D46BB
:1010A00016461F460E48046085808660878102468A
:1010B00091881068FFF771F8094A91899068FFF7E5
:1010C0006CF80749486A8047642001F09FFC044996
:1010D000486A8047642001F099FCBDE8F081000077
:1010E000680000200146CA1701EB92729210A1EB32
:1010F000820292B9642091FBF0F200FB121050B909
:101100004FF4C87091FBF0F200FB121008B90120F7
:1011100070470020FCE70120FAE70020F8E7000014
:1011200008B50121382000F099FA4FF48050ADF84D
:10113000000003208DF8020010208DF8030069469E
:101140000D48FFF766FD4FF48070ADF800000320F6
:101150008DF8020010208DF8030069460748FFF75C
:1011600058FD04210648FFF7DFFD4FF48071034866
:10117000FFF7DAFD08BD0000000C01400008014047
:101180000014014070B59AB005460E4601AB7D22B1
:101190003A21284601F086FCC4B2002C14DD224618
:1011A00001A90CA001F0FAFA10A101A8FFF700F8BC
:1011B00010B100200E4908700EA101A8FEF7F8FF3B
:1011C00010B101200A490870642101A8FEF7E5FF6B
:1011D0001AB070BD627566666572203D2025732069
:1011E0002C206C656E2025640D0A00003100000083
:1011F000900000203000000070B505460C46E1B2BA
:10120000284601F092FA70BD70B5002100230F222C
:10121000C47804B3154C246804F4E064C4F5E064B5
:10122000210AC1F10403CA40447804FA03F1847826
:101230001440214309010E4C0678A155047804F0AE
:101240001F050124AC4005786D11AD0005F1E025C6
:10125000C5F8004109E0047804F01F050124AC4002
:10126000044D0678761145F8264070BD0CED00E07F
:1012700000E400E080E100E002490143024A11601D
:10128000704700000000FA050CED00E010B50020EA
:1012900000F001F810BD70B50646002415E004F119
:1012A000B001C8B201F06BFA002001F068FA10201A
:1012B00001F065FA002504E0304601F067FA681C89
:1012C000C5B2802DF8DB601CC4B2082CE7DB70BD12
:1012D00010B54FF47A7001F099FBAE2001F04FFA8F
:1012E000202001F04CFA102001F049FAB02001F062
:1012F00046FAC82001F043FA002001F040FA10201D
:1013000001F03DFA402001F03AFA812001F037FA6D
:10131000FF2001F034FAA12001F031FAA62001F0FB
:101320002EFAA82001F02BFA3F2001F028FAA42081
:1013300001F025FAD32001F022FA002001F01FFA73
:10134000D52001F01CFAF02001F019FAD92001F0A3
:1013500016FA222001F013FADA2001F010FA122016
:1013600001F00DFADB2001F00AFA202001F007FA63
:101370008D2001F004FA142001F001FAAF2001F0F1
:10138000FEF910BD10B58D2001F0F9F9142001F01F
:10139000F6F9AF2001F0F3F910BD70B504460D4623
:1013A00005F1B001C8B201F0EAF9102141EA1410C8
:1013B00001F0E5F904F00F0141F0010001F0DFF95F
:1013C00070BD00002DE9F0470646894617469A464B
:1013D0004FF0000800240025BAF1010F03D0BAF144
:1013E000020F5ED125E020E0785D203800F0FF0894
:1013F0007E2E04DD002609F1010000F0FF094946B8
:101400003046FFF7CAFF002409E008EB4801264AEE
:1014100002EB4101085D01F0B9F9601CC4B2062C71
:10142000F3DBB01DC6B2681CC5B2785D0028DBD105
:1014300037E032E0785D203800F0FF08782E04DDD8
:10144000002609F1010000F0FF0949463046FFF788
:10145000A4FF002407E004EB0811144A505C01F0DB
:1014600095F9601CC4B2082CF5DB09F10100C1B28A
:101470003046FFF792FF002408E004EB0811083122
:101480000A4A505C01F082F9601CC4B2082CF4DBFB
:1014900006F10800C6B2681CC5B2785D0028C9D143
:1014A00000BF00BFBDE8F087842F0008AC31000802
:1014B00010B5022411E00C4A91881068FEF76DFE09
:1014C0000948016B09A088470749C82208680BA191
:1014D000FFF784FB08B1012010BD2000A4F1010139
:1014E000CCB2E8D100BFF7E73000002041542B43D5
:1014F00049504D4F44453D310D0A00004F4B00000F
:10150000014908627047000000000E422DE9F843CF
:101510000746884616463846FEF75CFE0090404671
:10152000FEF758FE05460020424988811EB100980A
:10153000001D441902E00098801C441930213D48E8
:1015400082898089401C3B4B988118468068815471
:1015500000BF2046E21704EB5262D211A4EBC21284
:10156000D1B2E21704EB5262D411002C01DD41F03C
:101570008001304882898089401C2E4B9881184612
:1015800080688154002CE4DC9DF8011018468289A3
:101590008089401C98811846806881549DF80020FD
:1015A000184681898089401C988118468068425479
:1015B000194689681A46928988183946009AFEF7B2
:1015C000D3FD1C488089009908441A498881CEB10E
:1015D00019484178174882898089401C154B9881A9
:1015E0001846806881541448027818468189808999
:1015F000401C98811846806842540F480088401C5F
:101600000D4908800B4989680A4A928988182A4638
:101610004146FEF7A9FD074880892844054988818D
:101620000A4691899068FFF7E7FD0248007BBDE814
:10163000F8830000680000209200002029B1064ACB
:10164000D2690243044BDA6104E0034AD26982435F
:10165000014BDA61704700000010024029B1064AD0
:1016600092690243044B9A6104E0034A92698243FF
:10167000014B9A6170470000001002400149086068
:10168000704700004004424230B50021002200248F
:1016900000232D4D6D6805F00C0121B1042905D002
:1016A000082923D105E0294D056022E0274D05607A
:1016B0001FE0254D6D6805F47012234D6D6805F42B
:1016C0008034022505EB92421CB9214D554305603B
:1016D0000BE01D4D6D6805F400351DB11C4D5543E3
:1016E000056002E0194D5543056002E0174D0560A5
:1016F00000BF00BF144D6D6805F0F0010909154DDC
:101700006B5C0568DD4045600F4D6D6805F4E06178
:10171000090A104D6B5C4568DD4085600A4D6D68B7
:1017200005F46051C90A0B4D6B5C4568DD40C5602E
:10173000054D6D6805F44041890B074D6B5CC5682C
:10174000B5FBF3F5056130BD0010024000127A00D0
:1017500000093D00A8000020B800002010B5014697
:101760000022002300204A11012A02D1094C2368DB
:1017700006E0022A02D1074C236A01E0054C636AA5
:1017800001F01F02012494401C400CB1012000E034
:10179000002010BD0010024000210B4A11700A4ABF
:1017A000203A82F82010012802D0042808D103E052
:1017B0000121054A117004E00521034A117000E07F
:1017C00000BF00BF704700002010024001490860C0
:1017D000704700003C0442420249096A0143014A41
:1017E0001162704700100240024909888143014A92
:1017F00011807047042800400348008840F0100022
:101800000149088070470000042800400348008810
:101810004FF6EF71084001490880704704280040E6
:1018200070B500260024002500F07AF806463848F6
:10183000B6FBF0F437480088A0423CD035490C8014
:1018400040F2B27510E02846FFF74CFC40B1B4F509
:10185000B77F02D3A4F5B77404E0681C85B206E034
:10186000A4F26D14681C85B2B4F5B67FEBD800BF46
:1018700029488580002516E027498888FFF732FC33
:1018800030B1012D04D11D2C01D31D3C09E00CE029
:101890002248405DA04203D82048405D241A00E061
:1018A00003E0681C85B21C2CE6D200BF681C1A49F4
:1018B0008871601CC8711648B6FBF0F100FB11641A
:1018C0004FF46160B4FBF0F0134908704FF46160AD
:1018D000B4FBF0F100FB11403C21B0FBF1F00E49EC
:1018E00048704FF46160B4FBF0F100FB11403C2103
:1018F000B0FBF1F201FB1200074988700B46DA7960
:101900009979988800F028F803490872002070BD82
:10191000805101002E00002060090020782F00086F
:10192000002103480188001F008841EA00407047F9
:101930001C28004001460020064A12880A40D0B206
:10194000044A121F12880A4012B108B1012000E0B7
:101950000020704704280040F0B503460C461546A9
:10196000642093FBF0F0C6B2642093FBF0F700FB19
:101970001730C1B2132E02DD01F16400C1B2084676
:10198000CF1701EB977701EBA707BAB2072092FBBD
:10199000F0F700FB172082B25719601EDFF82CC049
:1019A0001CF80000384482B2CF1701EB9777BF10C4
:1019B000A1EB87071FB9032C01DA501E82B2072062
:1019C00092FBF0F700FB1720C0B2F0BD6C2F0008AF
:1019D0000EB50120FFF7AEFF08B1FFF721FF02208F
:1019E000FFF7A8FFA0B10220FFF7FEFEFFF718FFE8
:1019F0000A48807809494978084A1278CDE90021D7
:101A000002900648C3798279818805A000F0C6FE5D
:101A10000520FFF7E9FE00F003F90EBD6009002084
:101A2000416C61726D2054696D653A25642D2564A1
:101A30002D25642025643A25643A25640A000000B7
:101A400029B1064A12880243044B1A8004E0034A73
:101A500012888243014B1A80704700000028004022
:101A60001CB5002401214FF0C050FFF7E7FD012015
:101A7000FFF746FD0420FEF7E5FB45F250018842E2
:101A800040D0FEF7D7FB0120FFF786FE04E0601C84
:101A9000C4B20A2000F0BAFF4120FFF75FFE08B988
:101AA000FA2CF4DBFA2C01DB01201CBD4FF4807012
:101AB000FFF792FE0120FFF789FE00F0B1F800F079
:101AC000B9F801210846FFF7BBFF00F0A9F8FFF7BE
:101AD00093FE47F6FF7000F093F800F0A1F837206E
:101AE0002A2111230E22CDE90010012140F2DF70DE
:101AF00000F014F8FFF78AFE45F250010420FEF7CB
:101B0000AFFB07E000F096F801210846FFF798FFC9
:101B100000F086F8FFF784FE0020C6E72DE9F05FAD
:101B200006460F4690469946DDE90AAB002440F28E
:101B3000B270864203DB40F63300864202DD0120AC
:101B4000BDE8F09F40F2B2750AE02846FFF7CAFAF6
:101B500010B12048044401E01F480444681C85B2C9
:101B6000B542F2DB781EC7B2002510E01B48405D8D
:101B700040F2A321484304EBC0143046FFF7B2FA09
:101B800018B1012D01D116480444681C85B2BD422C
:101B9000ECDBA8F1010040F2A321484304EBC014A0
:101BA000C9EB4910C0EB092004EB0014CAEB0A1082
:101BB00004EB80045C4401214FF0C050FFF73EFD70
:101BC0000120FFF79DFC204600F00CF800F028F8FB
:101BD0000020B5E70085E2018033E101782F00089D
:101BE0008051010000B50246FFF706FE100C0349C4
:101BF0000880091D0A80FFF709FE00BD1828004073
:101C000000B50246FFF7F8FDC2F303400349088020
:101C1000091D0A80FFF7FAFD00BD000008280040FA
:101C200000BF0348008800F020000028F9D070476A
:101C300004280040074800884FF6F771084005491E
:101C4000088000BF0348008800F008000028F9D091
:101C5000704700000428004010B50649C86A804754
:101C60004FF4FA7000F0D2FE0248016B02A08847E0
:101C700010BD00003000002041542B524553544FFA
:101C800052450D0A0000000070B505460C46054A95
:101C900091881068FEF781FAE1B2284600F045FD10
:101CA00070BD00003000002010B50446044A918841
:101CB0001068FEF772FA204600F056FD10BD0000D5
:101CC0003000002010B502210148FFF795FA10BD41
:101CD000A237000810B500F001F810BD0CB50020C7
:101CE000019000903348006840F48030314908602A
:101CF00000BF3048006800F4003000900198401C9C
:101D00000190009818B90198B0F5A06FF1D1294859
:101D1000006800F4003010B10120009001E00020C4
:101D200000900098012843D12348006840F010003B
:101D3000214908600846006820F003000860084652
:101D4000006840F0020008601A484068194948607D
:101D50000846406848600846406840F48060486033
:101D60000846406820F47C1048600846406840F40B
:101D7000E81048600846006840F08070086000BFC6
:101D80000C48006800F000700028F9D0094840684D
:101D900020F00300074948600846406840F0020010
:101DA000486000BF0348406800F00C000828F9D1E3
:101DB0000CBD000000100240002002402DE9F84355
:101DC00006460F4615464FF002083046FEF702FA67
:101DD00000900098001D0DB1012100E00021441881
:101DE00000205549888155B18221534882898089D4
:101DF000401C514B988118468068815409E0A2210B
:101E00004D4882898089401C4B4B988118468068D8
:101E1000815400BF2046E21704EB5262D211A4EBBA
:101E2000C212D1B2E21704EB5262D411002C01DDD0
:101E300041F08001404882898089401C3E4B988156
:101E4000184680688154002CE4DC00211846828901
:101E50008089401C98811846806881540121184669
:101E600082898089401C98811846806881549DF839
:101E70000110184682898089401C98811846806824
:101E800081549DF80010184682898089401C9881F1
:101E9000184680688154194689681A4692898818BC
:101EA0003146009AFEF760F923488089009908447A
:101EB0002149888145B1084681898089401C1E4A94
:101EC000908110468068475427E01B4A918810682B
:101ED000FEF763F9184A91899068FFF78DF94FF082
:101EE0001E0913E0144800680078144909788842F4
:101EF00009D111480068407810494978884202D1D8
:101F00000120BDE8F883642000F080FD5FEA09004D
:101F1000A9F1010101F0FF09E4D15FEA0800A8F18D
:101F2000010101F0FF08D0D1B8F1000F01D001206C
:101F3000E7E70020E5E7000068000020A63700087A
:101F4000042808D14FF0E021096941F004014FF065
:101F5000E022116107E04FF0E021096921F004015E
:101F60004FF0E0221161704710B51348006840F04F
:101F700001001149086008464068104908400E49B0
:101F80004860084600680E4908400B49086008464A
:101F9000006820F4802008600846406820F4FE00B5
:101FA00048604FF41F008860FFF794FE4FF0006018
:101FB0000449086010BD0000001002400000FFF856
:101FC000FFFFF6FE08ED00E010B50121880700F0E4
:101FD00070F8002840D00121880700F05BF81F4806
:101FE0000078E8B91E480068401C1D490860642854
:101FF00019D1002008601B48007830B90120194928
:1020000008700020184908600DE016480078012883
:1020100009D100201349087001201349086002E02B
:1020200001201149086011480068401C0F490860F0
:10203000B0F57A7F04D10020086001200C490870B7
:102040000C480068401C0B490860642804D100203B
:10205000086001200849087010BD000090000020B1
:102060000C00002018000020B08121421000002048
:1020700001000020140000200200002021B102888D
:1020800042F08002028004E002884FF67F731A401B
:1020900002807047CA430282704721B1028842F031
:1020A0000102028004E002884FF6FE731A400280AB
:1020B000704730B50246002000230024158A05EA47
:1020C0000103958905EA010413B10CB1012000E078
:1020D000002030BD1AB183890B43838102E08389DC
:1020E0008B4383817047000070B5002400220023D9
:1020F000058C4FF6FF6635400584028C8388848BFF
:102100004FF68F752C404FF6FC752C400D882C43F4
:102110004FF6FF552A400D894FF6FF7606EA052552
:102120002A434D8806EA05252A43154DA84202D0C8
:10213000144DA8421DD14FF2FF752A404D894FF62C
:10214000FF7606EA05252A434FF6FF352A408D889B
:1021500006EA05252A434EF6FF752B404DF6FF751E
:102160002B408D8906EA05152B43CD8906EA051516
:102170002B4383808483CD888587028470BD0000D3
:10218000002C0140003401400A460021818B4FF6AB
:10219000F7731940114381837047000070B5002226
:1021A00000230024058C4EF6FF7635400584038C11
:1021B0008488828B48F6FF752A404FF6FF452A40F7
:1021C0000D884FF6FF7606EA05252A434DF6FF7582
:1021D0002B400D8906EA05352B434D8806EA053567
:1021E0002B430B4DA84202D00A4DA84208D14BF612
:1021F000FF752C408D894FF6FF7606EA85152C4336
:1022000084808283CD88A0F84050038470BD000094
:10221000002C0140003401400A460021818B4FF21E
:10222000FF7319404FF6FF7303EA022319438183BA
:102230007047818770470000002202881D4B98423A
:102240000ED01D4B98420BD0B0F1804F08D01B4BE5
:10225000984205D01A4B984202D01A4B984204D1AA
:102260004FF68F731A404B881A43174B984207D08A
:10227000164B984204D04FF6FF431A40CB881A43BE
:1022800002808B8883850B8803850A4B98420BD08C
:10229000094B984208D00E4B984205D00D4B9842FE
:1022A00002D00D4B984201D10B7A03860123838221
:1022B00070470000002C0140003401400004004041
:1022C00000080040000C00400010004000140040D6
:1022D0000040014000440140004801403EB5054631
:1022E0000C4601210846FFF7A9F9681E80B2ADF837
:1022F0000400601E80B2ADF800000020ADF80600BA
:10230000ADF8020069464FF08040FFF795FF0122CB
:1023100011469007FFF7DEFE01218807FFF7BDFE9B
:102320003EBD000030B589B005460C4601210420B1
:10233000FFF784F901210920FFF790F94FF440706D
:10234000ADF8140018208DF8170003208DF8160042
:1023500005A92048FEF75DFC681E80B2ADF81C00A0
:10236000601E80B2ADF818000020ADF81E00ADF878
:102370001A0006A91848FFF75FFF6020ADF80400B7
:102380000120ADF806000020ADF80C0001A91248AC
:10239000FFF7AAFE08211048FFF7F6FE6020ADF80F
:1023A00004000120ADF806000020ADF80C0001A9E2
:1023B0000948FFF7F3FE08210748FFF72DFF012129
:1023C0000548FFF75BFE01210348FFF766FE09B0F1
:1023D00030BD0000000C01400008004010B540F284
:1023E00025511D4800F0DDF810B31B4800F094F9AA
:1023F000C4B21A48008800F40040C8B917480088E1
:1024000000F4804060B10A2C03D0002013490880FA
:1024100020E01248008840F400401049088019E08C
:102420000D2C06D10D48008840F480400B490880EF
:1024300010E00A480088C0F30D0009490C54074811
:102440000088401C0549088008460088C72801DD2F
:102450000020088010BD000000380140240000204A
:10246000D007002010B540F225511D4800F099F822
:1024700010B31B4800F050F9C4B21A48008800F4A9
:102480000040C8B91748008800F4804060B10A2CA9
:1024900003D000201349088020E01248008840F44F
:1024A00000401049088019E00D2C06D10D48008825
:1024B00040F480400B49088010E00A480088C0F3CF
:1024C0000D0009490C5407480088401C0549088044
:1024D00008460088C72801DD0020088010BD0000E4
:1024E00000440040260000209808002010B540F26B
:1024F00025511A4800F055F8C8B11848001D008849
:102500001749087017480078FF2802DB002015499A
:10251000087013480178134802780078401C114B6A
:10252000187011488154184600781946087040F216
:1025300024410A4800F035F870B10848001D0088B1
:102540000749087005480088087006480078074960
:10255000888000200349087010BD0000004800403A
:102560002C0000202D000020BC010020680000206D
:1025700021B1828942F40052828104E082894DF6C1
:10258000FF731A408281704702460020B1F5007F38
:1025900000D100BF13880B400BB1012000E00020E8
:1025A000704770B50246002400230025002040F645
:1025B0006A16B14200D100BFC1F3421501F01F03FA
:1025C000012606FA03F3012D02D19689334006E075
:1025D000022D02D1168A334001E0968A33400C1254
:1025E000012606FA04F41688344013B10CB1012018
:1025F00000E0002070BDF0B5034600240026002551
:10260000002040F66A17B94200D100BF1846C1F356
:10261000421401F01F06012707FA06F5012C01D12B
:102620000C3004E0022C01D1103000E014301AB15B
:1026300007682F43076002E00768AF430760F0BDFB
:102640002DE9F04786B005460E460024A24600BF9D
:10265000A1460027B08900B100BF2F462C8A4CF656
:10266000FF700440F08804432C82AC894EF6F310CE
:102670000440B08831890843718908430443AC8120
:10268000AC8A4FF6FF400440B0890443AC8201A8F5
:10269000FEF7FAFF1F48874202D1DDF810A001E0E3
:1026A000DDF80CA0A88900F4004040B10AEBCA0094
:1026B00000EB0A1031684900B0FBF1F807E00AEBC3
:1026C000CA0000EB0A1031688900B0FBF1F8642001
:1026D000B8FBF0F004012009642101FB1089A889EE
:1026E00000F4004040B1322000EBC900B0FBF1F033
:1026F00000F00700044308E0322000EB09106421D9
:10270000B0FBF1F000F00F0004432C8106B0BDE8EF
:10271000F08700000038014001468888C0F30800B7
:102720007047C1F308028280704770B504460D46B9
:1027300003E014F8010B00F007F82800A5F10101EF
:10274000CDB2F6D170BD000010B504462146054853
:10275000FFF7E7FF00BF40210248FFF715FF002801
:10276000F9D010BD0048004010B5044603E014F84D
:10277000010BFFF7E9FF20780028F8D110BD10B554
:10278000044621460020FEF7EBFB10BD10B50446C1
:1027900021464020FEF7E4FB10BD00000FB4054BBE
:1027A00010B503A9044A029800F02CF810BC5DF89B
:1027B00014FB00004D2B0008200000200FB4084B34
:1027C00010B504A902AA039800F01CF8044602A957
:1027D000002000F0F3F8204610BC5DF814FB000068
:1027E000BD29000802E008C8121F08C1002AFAD15A
:1027F00070477047002001E001C1121F002AFBD181
:10280000704700002DE9FF4F8BB09A460F460546F2
:10281000002606E025280BD052460D9990476D1CE6
:10282000761C28780028F5D10FB03046BDE8F08F2F
:102830000024A0460122604900E0044315F8013F4E
:10284000203B02FA03F00842F7D128782E2817D14E
:1028500015F8010F44F004042A280ED06FF02F025F
:102860002878A0F1300109290AD808EB880102EB89
:10287000410100EB01086D1CF2E757F8048B6D1C59
:10288000287869283ED006DC0028CDD063280BD0FC
:10289000642804D136E0732810D075284BD05246F6
:1028A0000D999047761C85E017F8040B8DF8000011
:1028B00000208DF80100E946012003E057F8049B51
:1028C0004FF0FF3061074FF0000401D40AE0641CB0
:1028D00044450DDA8442FADB19F804100029F6D1D8
:1028E00006E0641C8442FCDB19F804100029F8D1CE
:1028F000264404E019F8010B52460D999047641ED6
:10290000F8D257E001CF4FF00A0B002802DA40421C
:102910002D2102E0210504D52B218DF82410012161
:1029200003E0E10705D02021F7E70DF12009089128
:102930000CE00021F9E701CF4FF00A0BF9E7594607
:10294000FDF74FFC01F1300209F8012D0028F6D106
:10295000ADEB090000F1200B600701D44FF0010836
:10296000D84502DDA8EB0B0000E0002080460024E3
:1029700006E009A85246005D0D999047641C761C3C
:1029800008988442F5DB04E0302052460D999047C8
:10299000761CB8F10001A8F10108F5DC05E019F892
:1029A000010B52460D999047761CBBF10001ABF12B
:1029B000010BF4DC6D1C34E7092801000A68531C84
:1029C0000B6010707047000010B56FF00400FFF747
:1029D000B7FA0A4800680A49B0FBF1F009490870E3
:1029E0000846007800EB4001C1EBC0104FF6FF71C4
:1029F00001EAC0000449088010BD000094000020D6
:102A000000127A001A0000201C0000200146114A22
:102A100012884A434FF0E0235A6100229A611A4615
:102A2000126942F001021A6100BF4FF0E022106902
:102A300000F001021AB100F48032002AF5D04FF004
:102A4000E022126922F001024FF0E0231A61002215
:102A50009A6170471C0000200146114A12784A43CF
:102A60004FF0E0235A6100229A611A46126942F03F
:102A700001021A6100BF4FF0E022106900F001026C
:102A80001AB100F48032002AF5D04FF0E02212692A
:102A900022F001024FF0E0231A6100229A61704790
:102AA0001A0000202DE9F047B2B0804689469246D0
:102AB0001E4600240025002700BF09E018F8040086
:102AC00028B118F8042028466D1C19A90A54641C62
:102AD000642CF3DB002019A94855002404E019A850
:102AE000005D0DF80400641C19A8FDF773FB401C81
:102AF000A042F4D80025002421E02FB91DF80400DD
:102B0000484508D1012706E0012F04D11DF8040033
:102B1000504500D10227012F04D11DF80400705543
:102B20006D1C0BE0022F09D11DF804007055002028
:102B300071194870681E32B0BDE8F087641C6846A1
:102B4000FDF748FBA042D8D80020F4E700BF054AB3
:102B5000128802F04002002AF9D0C2B2014B1B1DBC
:102B60001A80704700380140FFF72EFF4FF4E13024
:102B700000F02EF94FF4E13000F06CF94FF4E13041
:102B800000F0A8F9FEF7CCFA48214FF47A70FFF76D
:102B9000A5FB4FF4E151C820FFF7C4FBFEF760FF2F
:102BA00000F0C4F8FDF7DAFDFEF7E2F8FEF790FB5F
:102BB000FEF76CFBFEF7E6FB38A0FFF7EFFD0F21F9
:102BC0003A48FFF736FBFDF7D5FE65E03848027856
:102BD00038A13B48FFF7F2FD0223394A19460F207E
:102BE000FEF7F0FB3748027837A13548FFF7E6FDDE
:102BF0000223334A04210F20FEF7E4FB3548007816
:102C0000002829D000203349087029492D48FDF7B4
:102C100028FE2C480378264802782FA13548FFF774
:102C2000CDFD354800223349C36934A09847204878
:102C300002782448017836A0FFF7B0FD21480378D8
:102C400021A202210F20FEF7BDFB1948037819A22B
:102C500004210F20FEF7B6FB2F48008800F4004047
:102C600050B12E492EA0FFF799FD00202A49088077
:102C7000C8212D48FDF791FA1F48808860B11E4A8F
:102C800091881068FEF77EFA1B4A91881068FDF75C
:102C900084FA00201849888098E7000043505520A6
:102CA000537461727420210D0A0000000008004076
:102CB000040000207368696475203D2025640000CD
:102CC000E80300200300002077656E6475203D2036
:102CD00025640000010000207B227368696475226E
:102CE0003A222564222C2277656E6475223A2225C9
:102CF00064227D00BC020020680000202F6361690F
:102D00002F656E7669726F6E6D656E7400000000DF
:102D100025642C25640D0A00240000208403002073
:102D20002573200D0A000000D007002008B54FF4DD
:102D3000C060FEF7A1FA1C208DF8000001208DF87C
:102D4000010002208DF8020001208DF80300684682
:102D5000FEF75AFA25208DF8000000208DF80100BA
:102D600003208DF8020001208DF803006846FEF76D
:102D70004BFA26208DF8000001208DF80100042078
:102D80008DF8020001208DF803006846FEF73CFA3A
:102D900027208DF8000001208DF8010005208DF816
:102DA000020001208DF803006846FEF72DFA03208B
:102DB0008DF8000001208DF8010006208DF802003A
:102DC00001208DF803006846FEF71EFA08BD0000DA
:102DD00010B586B00446012144F20400FEF73EFC23
:102DE0004FF40070ADF8140003208DF81600182081
:102DF0008DF8170005A91548FDF70BFF4FF480600B
:102E0000ADF8140004208DF8170005A90F48FDF750
:102E100000FF01940020ADF80800ADF80A00ADF8FD
:102E20000C00ADF810000C20ADF80E0001A9084808
:102E3000FFF706FC012240F225510548FFF7DBFBB6
:102E400001210348FFF794FB06B010BD00080140C4
:102E50000038014010B586B0044601210420FEF779
:102E6000FDFB01214804FEF7E9FB0420ADF8140046
:102E700003208DF8160018208DF8170005A91348B7
:102E8000FDF7C7FE0820ADF8140004208DF81700E8
:102E900001940020ADF80800ADF80A00ADF80C0070
:102EA000ADF810000C20ADF80E0001A90848FFF79E
:102EB000C7FB012240F225510548FFF79CFB012189
:102EC0000348FFF755FB06B010BD000000080140A5
:102ED0000044004010B586B0044601210820FEF7EA
:102EE000BDFB01218804FEF7A9FB4FF48060ADF81B
:102EF000140003208DF8160018208DF8170005A97E
:102F00001848FDF786FE4FF40060ADF81400042069
:102F10008DF8170005A91348FDF77BFE01940020EA
:102F2000ADF80800ADF80A00ADF80C00ADF81000DF
:102F30000C20ADF80E0001A90B48FFF781FB012220
:102F400040F225510848FFF756FB012240F2244188
:102F50000548FFF750FB01210348FFF709FB06B0C6
:102F600010BD0000000C01400048004000030306B3
:102F700001040602050003051F1C1F1E1F1E1F1F44
:102F80001E1F1E1F0000000000000000002F000098
:102F900000000700070000147F147F1400242A7F1C
:102FA0002A1200626408132300364955225000009B
:102FB0000503000000001C224100000041221C000B
:102FC0000014083E08140008083E0808000000A08D
:102FD0006000000808080808000060600000002089
:102FE00010080402003E5149453E0000427F400067
:102FF000004261514946002141454B3100181412ED
:103000007F10002745454539003C4A4949300001B9
:103010007109050300364949493600064949291E08
:10302000000036360000000056360000000814226A
:10303000410000141414141400004122140800026A
:103040000151090600324959513E007C1211127C8F
:10305000007F49494936003E41414122007F4141BC
:10306000221C007F49494941007F09090901003EAE
:103070004149497A007F0808087F0000417F4100EC
:10308000002040413F01007F08142241007F404062
:103090004040007F020C027F007F0408107F003E4A
:1030A0004141413E007F09090906003E4151215E30
:1030B000007F091929460046494949310001017F2D
:1030C0000101003F4040403F001F2040201F003FC3
:1030D0004038403F00631408146300070870080775
:1030E00000615149454300007F41410000552A5588
:1030F0002A55000041417F00000402010204004003
:103100004040404000000102040000205454547824
:10311000007F484444380038444444200038444444
:10312000487F00385454541800087E0901020018E2
:10313000A4A4A47C007F080404780000447D40001F
:10314000004080847D00007F102844000000417F03
:103150004000007C04180478007C080404780038DF
:103160004444443800FC242424180018242418FC67
:10317000007C0804040800485454542000043F44D0
:103180004020003C4040207C001C2040201C003C93
:103190004030403C004428102844001CA0A0A07CE3
:1031A000004464544C44141414141414000000001B
:1031B000000000000000000000000000000000F817
:1031C00000000000000000333000000000100C067A
:1031D000100C0600000000000000000040C0784015
:1031E000C0784000043F04043F040400007088FCE1
:1031F00008300000001820FF211E0000F008F00039
:10320000E018000000211C031E211E0000F00888A9
:10321000700000001E2123241927211010160E0013
:10322000000000000000000000000000000000E0BE
:1032300018040200000000071820400000020418D3
:10324000E00000000040201807000000404080F02F
:10325000804040000202010F01020200000000F065
:10326000000000000101011F010101000000000039
:103270000000000080B070000000000000000000AE
:103280000000000000010101010101010000000037
:1032900000000000003030000000000000000000CE
:1032A00080601804006018060100000000E01008AB
:1032B0000810E000000F102020100F00001010F880
:1032C000000000000020203F2020000000700808BF
:1032D000088870000030282422213000003008883F
:1032E000884830000018202020110E000000C02067
:1032F00010F8000000070424243F240000F8088888
:10330000880808000019212020110E0000E0108814
:1033100088180000000F112020110E000038080846
:10332000C83808000000003F000000000070880856
:1033300008887000001C222121221C0000E01008D7
:103340000810E0000000312222110F00000000C030
:10335000C0000000000000303000000000000080CD
:1033600000000000000080600000000000008040BD
:1033700020100800000102040810200040404040D6
:103380004040400004040404040404000008102029
:10339000408000000020100804020100007048086E
:1033A0000808F0000000003036010000C030C828D6
:1033B000E810E0000718272423140B000000C03891
:1033C000E0000000203C23020227382008F888880B
:1033D00088700000203F202020110E00C030080817
:1033E00008083800071820202010080008F80808EE
:1033F0000810E000203F202020100F0008F88888E7
:10340000E8081000203F20202320180008F88888B2
:10341000E8081000203F200003000000C03008082A
:103420000838000007182020221E020008F80800B3
:103430000008F808203F210101213F20000808F87A
:10344000080800000020203F20200000000008089D
:10345000F8080800C08080807F00000008F888C05D
:1034600028180800203F20012638200008F808000E
:1034700000000000203F20202020300008F8F80045
:10348000F8F80800203F003F003F200008F830C057
:103490000008F808203F200007183F00E010080847
:1034A0000810E0000F10202020100F0008F8080876
:1034B0000808F000203F210101010000E010080889
:1034C0000810E0000F18242438504F0008F88888AE
:1034D00088887000203F2000030C3020007088088E
:1034E000080838000038202121221C00180808F89C
:1034F000080818000000203F2000000008F808001D
:103500000008F808001F202020201F0008788800ED
:1035100000C83808000007380E010000F80800F85D
:103520000008F800033C0700073C03000818688007
:103530008068180820302C03032C30200838C8007D
:10354000C83808000000203F2000000010080808CC
:10355000C83808002038262120201800000000FE6E
:10356000020202000000007F40404000000C30C01A
:1035700000000000000000010638C0000002020246
:10358000FE000000004040407F00000000000402F8
:103590000202040000000000000000000000000023
:1035A0000000000080808080808080800002020413
:1035B000000000000000000000000000000080800B
:1035C000808000000019242222223F2008F8008079
:1035D00080000000003F112020110E00000000803C
:1035E00080800000000E11202020110000000080CB
:1035F0008088F800000E112020103F2000008080FD
:1036000080800000001F222222221300008080F010
:10361000888888180020203F20200000000080803B
:1036200080808000006B94949493600008F8008080
:1036300080800000203F210000203F2000809898DB
:10364000000000000020203F20200000000000803B
:103650009898000000C08080807F000008F800007B
:1036600080808000203F24022D302000000808F8D0
:10367000000000000020203F20200000808080808B
:1036800080808000203F20003F20003F808000801D
:1036900080800000203F210000203F20000080802B
:1036A00080800000001F202020201F0080800080DC
:1036B0008000000080FFA12020110E00000000808B
:1036C00080808000000E112020A0FF80808080007C
:1036D0008080800020203F212000010000008080A9
:1036E000808080000033242424241900008080E09E
:1036F000808000000000001F20200000808000006B
:1037000000808000001F202020103F20808080004B
:103710000080808000010E3008060100808000805B
:10372000008080800F300C030C300F000080800080
:10373000808080000020312E0E31200080808000AB
:103740000080808080818E7018060100008080805B
:10375000808080000021302C2221300000000000F9
:10376000807C020200000000003F4040000000009A
:10377000FF00000000000000FF0000000002027CCB
:10378000800000000040403F0000000000060101F2
:1037900002020404000000000000000020020000FB
:1037A000E000C000C0009003C837000800000020FF
:1037B000BC000000E427000884380008BC0000209A
:1037C000CC0C0000F42700080000000000000000FE
:1037D00000000000000000000000000000000000E9
:1037E00000000000000000000000000000000000D9
:1037F00000000000000000000000000000000000C9
:1038000000000000000000007D020008ED0F00082D
:10381000591C0008AD050008750600080D090008D0
:10382000B1140008C5020008A91C0008891C000882
:103830000000000000000000000000000000000088
:1038400099100008ED020008BD1D00080D150008C4
:10385000C51C0008FD0800080100000000A24A0481
:103860000000000000000000010203040607080930
:103870000000000001020304010203040607080916
:043880000204060830
:0400000508000145A9
:00000001FF
