:020000040800F2
:10000000880F00209D1E0008BF050008C1050008DC
:10001000C5050008C9050008CD050008000000005E
:10002000000000000000000000000000D1050008F2
:10003000D305000800000000D5050008D70500081A
:10004000B71E0008B71E0008B71E0008B71E00083C
:10005000B71E0008B71E0008B71E0008B71E00082C
:10006000B71E0008B71E0008B71E0008B71E00081C
:10007000B71E0008B71E0008B71E0008B71E00080C
:10008000B71E0008B71E0008B71E0008B71E0008FC
:10009000B71E0008B71E0008B71E0008B71E0008EC
:1000A000B71E0008B71E0008B71E0008B71E0008DC
:1000B00079050008B71E0008B71E0008B71E000823
:1000C000B71E0008B71E0008B71E0008B71E0008BC
:1000D000B71E0008891B0008031C00080B1D000840
:1000E000B71E0008B71E0008B71E0008B71E00089C
:1000F000B71E0008B71E0008B71E0008B71E00088C
:10010000B71E0008B71E0008B71E0008B71E00087B
:10011000B71E0008B71E0008B71E0008B71E00086B
:10012000B71E0008B71E0008B71E0008B71E00085B
:1001300000F002F800F062F80AA090E8000C824497
:100140008344AAF10107DA4501D100F057F8AFF274
:10015000090EBAE80F0013F0010F18BFFB1A43F0A5
:1001600001031847A4480000C44800000A444FF0A7
:10017000000C10F8013B13F0070408BF10F8014B06
:100180001D1108BF10F8015B641E05D010F8016B4B
:10019000641E01F8016BF9D113F0080F1EBF10F8AF
:1001A000014BAD1C0C1B09D16D1E58BF01F801CBD2
:1001B000FAD505E014F8016B01F8016B6D1EF9D555
:1001C0009142D6D37047000000230024002500266A
:1001D000103A28BF78C1FBD8520728BF30C148BFAA
:1001E0000B607047642903F0F985732903F07D875C
:1001F000002070471FB51FBD10B510BD03F0C2FF32
:100200001146FFF7F7FF00F08BF803F0E0FF03B4AF
:10021000FFF7F2FF03BC01F02FFC000010B56C48A3
:100220004FF480736B4A194644696B48A04740B14C
:100230006AA003F055FD6D480068401C6B490860DA
:1002400005E06BA003F04CFD00206849086067489A
:100250000068012814D15E486AA1C2696CA0904769
:1002600040B16DA003F03CFD60480068401C5F4950
:10027000086005E06DA003F033FD00205B490860D5
:100280005A480068022816D1514840F25B726CA1AE
:10029000036A74A0984740B173A003F021FD53484E
:1002A0000068401C5149086005E075A003F018FD86
:1002B00000204E4908604D48006803281DD176484B
:1002C0004FF48073434A194604694348A047724873
:1002D00072A277A143697AA0984740B17DA003F04C
:1002E000FFFC42480068401C4049086005E07EA0D1
:1002F00003F0F6FC00203D4908603C4800680428F3
:100300000DD165480122002183697CA0984718B16E
:100310007EA003F0E5FC02E082A003F0E1FC10BD4A
:1003200001F040FB4FF4E13001F0B5FB4FF4E13058
:1003300001F0A4FC00F046FA48214FF47A7000F076
:100340005DFA00F084FB00F0A1FB00F026FC00F059
:10035000AFFC00F0B2FC01F06DFD78A003F0C0FC32
:10036000FFF75CFF32E07948007801281ED10020B9
:10037000764908707649774800F03DFB7548027869
:1003800075A1764803F0B8FC434800227349C3695D
:1003900073A098476E4802786FA1704803F0ACFCD8
:1003A0003D4800226D49C36970A098473A4880884B
:1003B00060B1394A9188106801F0B5F8364A9188E1
:1003C000106803F0BDFD002033498880CBE70000B2
:1003D000D004002094050020940600204E6574206F
:1003E000496E6974204F4B210D0A00000400002063
:1003F0004E657420496E6974204572726F72210DCA
:100400000A00000031323334353633323100000017
:1004100069706F6E65000000436F6E6E63657420D7
:100420004150204F4B210D0A00000000436F6E6EBB
:10043000636574204150204572726F72210D0A006D
:1004400069697A797177662E6D7174742E696F742B
:100450002E677A2E62616964756263652E636F6DC3
:100460000000000054435000436F6E6E63657420BB
:10047000536572766572204F4B210D0A0000000013
:10048000436F6E6E636574205365727665722045A6
:1004900072726F72210D0A00A404002070414F4D4A
:1004A000636647787365394F39765A430000000018
:1004B00069697A797177662F636169736979750003
:1004C000636169736979755F64616E7069616E6A91
:1004D00069000000456E746572204D515454204FE0
:1004E0004B210D0A00000000456E746572204D51CD
:1004F0005454204572726F72210D0A002F63616996
:100500002F636F6E74726F6C4C4544005375627349
:100510006372696265546F706963204F4B210D0AE5
:1005200000000000537562736372696265546F70F6
:100530006963204572726F72210D0A006370752025
:100540007374617274210D0A000000000200002023
:10055000010000200000002025640000300500207C
:100560002F6361692F77656E647500002F63616981
:100570002F7368696475000010B50121880703F0C6
:100580009AFBD8B10121880703F0A6FB1248006846
:10059000401C11490860642801D1002008600F4800
:1005A0000068401C0D49086040F2DC51884205D1CA
:1005B00000200A49086001200949087010BD7047F1
:1005C00000BFFEE700BFFEE700BFFEE700BFFEE79B
:1005D0007047704770477047080000200C000020EB
:1005E000020000200CB50020019000906C480068CB
:1005F00040F480306A49086000BF6948006800F430
:10060000003000900198401C0190009818B90198A2
:10061000B0F5A06FF1D16248006800F4003010B16D
:100620000120009001E0002000900098012843D1B3
:100630005C48006840F010005A49086008460068AD
:1006400020F0030008600846006840F002000860DF
:100650005348406852494860084640684860084628
:10066000406840F4806048600846406820F47C1090
:1006700048600846406840F4E81048600846006852
:1006800040F08070086000BF4548006800F00070CE
:100690000028F9D04248406820F0030040494860F3
:1006A0000846406840F00200486000BF3C4840688F
:1006B00000F00C000828F9D10CBD10B5FFF792FF2F
:1006C00010BD10B53648006840F00100344908609C
:1006D0000846406834490840314948600846006887
:1006E000324908402E4908600846006820F48020FE
:1006F00008600846406820F4FE0048604FF41F0080
:100700008860FFF7DAFF4FF000602949086010BDEC
:1007100010B5002100200022214B5B6803F00C0182
:1007200021B1042906D0082928D107E0214B224C09
:10073000236027E01F4B204C236023E0184B5B68AD
:1007400003F47010164B5B6803F48032022303EB52
:10075000904022B9194B4343174C23600DE0104BD6
:100760005B6803F4003323B1144B4343124C236002
:1007700003E0104B4343104C236003E00D4B0E4C41
:10078000236000BF00BF064B5B68C3F303130C4C30
:10079000E15C094B1B68CB40074C236010BD000097
:1007A00000100240002002400000FFF8FFFFF6FEAC
:1007B00008ED00E000127A001000002000093D0062
:1007C0001400002008B50121082001F011FF4FF4AA
:1007D0008050ADF8000010208DF8030003208DF844
:1007E00002006946044801F047FC4FF4805102487A
:1007F00001F0EFFC08BD0000000C01403EB50546CD
:100800000C460121084601F000FF681E80B2ADF8D9
:100810000400601E80B2ADF800000020ADF80600B4
:10082000ADF8020069464FF0804002F01FFC012243
:100830001146900702F091FF0121880702F072FF34
:100840003EBD30B589B005460C460121042001F0BB
:10085000DCFE0121092001F0CBFE4FF44070ADF821
:10086000140018208DF8170003208DF8160005A934
:100870001F4801F001FC681E80B2ADF81C00601E2C
:1008800080B2ADF818000020ADF81E00ADF81A00D7
:1008900006A9184802F0EAFB6020ADF80400012028
:1008A000ADF806000020ADF80C0001A9114802F0D7
:1008B000A9FC08210F4803F07BF86020ADF8040084
:1008C0000120ADF806000020ADF80C0001A9094890
:1008D00002F0E3FC0821074803F073F80121054802
:1008E00003F020F80121034802F01CFF09B030BDDD
:1008F000000C01400008004010B56148006820F07D
:100900000F005F4908600846006840F00300086077
:1009100000205C490860142001F081F801205A4948
:10092000C1F880011E2001F056F810BD10B500245A
:100930005348006820F00F005149086008460068DD
:1009400040F00800086004E0601CC4B2012001F01F
:1009500042F84C488038006808B1642CF4DB642C01
:1009600001DB012010BD002404E0601CC4B20120A2
:1009700001F031F843488038006808B9642CF4DB92
:10098000642C01DB0120EDE70020EBE710B500242B
:1009900004E0601CC4B2012001F01DF83948803821
:1009A000006808B1642CF4DB002404E0601CC4B2CD
:1009B000012001F010F833488038006808B9642C31
:1009C000F4DB282001F007F82E488038006808B1D1
:1009D000012010BD0020FCE770B50024002506E0D2
:1009E0006006040EFFF7D2FF0443681CC5B2082D51
:1009F000F6DB204670BD7CB505460E46FFF77CFF52
:100A0000FFF794FFF8B9002405E0FFF7E5FF0DF8C4
:100A10000400601CC4B2052CF7DB9DF800009DF8B3
:100A2000011008449DF8021008449DF80310084482
:100A30009DF80410884208D19DF8000030709DF8A0
:100A40000200287001E001207CBD0020FCE708B511
:100A50000121082001F0CCFD0120ADF8000010209C
:100A60008DF8030003208DF802006946044801F068
:100A700003FB012003490860FFF73EFF08BD0000AB
:100A8000000C0140808121420080214200B585B0E8
:100A90000121480501F0B9FD0121082001F0A8FD60
:100AA0004020ADF8000003208DF802001C208DF8D6
:100AB00003006946F64801F0DFFA8020ADF8000037
:100AC0006946F34801F0D8FA0020ADF808004BF66B
:100AD000FF70ADF80A001020ADF80C008001ADF8F1
:100AE0000E000001ADF81000EA48019001A9EA48A3
:100AF00001F0FFFF0121E84802F079F805B000BDE0
:100B000070B504460D4600BF4FF40031E24802F0D4
:100B100095F90028F8D10121DF4802F08CF800BFD8
:100B2000DE49DD4802F068F90028F9D0002278217A
:100B3000D94802F0D6F800BFD949D74802F05CF98D
:100B40000028F9D02146D44802F0C5F800BFD449A6
:100B5000891CD14802F050F90028F8D02946CE4827
:100B600002F0B9F800BFCE49891CCB4802F044F925
:100B70000028F8D00121C84802F069F870BD10B50E
:100B8000044621460020FFF7BBFF10BD10B5044608
:100B900021464020FFF7B4FF10BD10B54FF47A7026
:100BA00000F03DFFAE20FFF7EAFF2020FFF7E7FF50
:100BB0001020FFF7E4FFB020FFF7E1FFC820FFF7A8
:100BC000DEFF0020FFF7DBFF1020FFF7D8FF4020FB
:100BD000FFF7D5FF8120FFF7D2FFFF20FFF7CFFF00
:100BE000A120FFF7CCFFA620FFF7C9FFA820FFF741
:100BF000C6FF3F20FFF7C3FFA420FFF7C0FFD320AD
:100C0000FFF7BDFF0020FFF7BAFFD520FFF7B7FFC2
:100C1000F020FFF7B4FFD920FFF7B1FF2220FFF744
:100C2000AEFFDA20FFF7ABFF1220FFF7A8FFDB20B3
:100C3000FFF7A5FF2020FFF7A2FF8D20FFF79FFF02
:100C40001420FFF79CFFAF20FFF799FF10BD70B590
:100C500004460D4605F1B001C8B2FFF790FF102120
:100C600041EA1410FFF78BFF04F00F0141F001007F
:100C7000FFF785FF70BD70B50646002415E004F14E
:100C8000B001C8B2FFF77BFF0020FFF778FF10200C
:100C9000FFF775FF002504E03046FFF777FF681C7B
:100CA000C5B2802DF8DB601CC4B2082CE7DB70BD38
:100CB00010B50020FFF7DFFF10BD10B58D20FFF746
:100CC0005EFF1420FFF75BFFAF20FFF758FF10BD5A
:100CD00010B58D20FFF753FF1020FFF750FFAE2017
:100CE000FFF74DFF10BD2DE9F04706468946174630
:100CF0009A464FF0000800240025BAF1010F03D0F6
:100D0000BAF1020F5ED125E020E0785D203800F0D6
:100D1000FF087E2E04DD002609F1010000F0FF0926
:100D200049463046FFF793FF002409E008EB4801ED
:100D30005C4A02EB4101085DFFF728FF601CC4B26A
:100D4000062CF3DBB01DC6B2681CC5B2785D002866
:100D5000DBD137E032E0785D203800F0FF08782EF4
:100D600004DD002609F1010000F0FF094946304684
:100D7000FFF76DFF002407E004EB08114A4A505CBE
:100D8000FFF704FF601CC4B2082CF5DB09F1010079
:100D9000C1B23046FFF75BFF002408E004EB081106
:100DA0000831414A505CFFF7F1FE601CC4B2082CC8
:100DB000F4DB06F10800C6B2681CC5B2785D0028F5
:100DC000C9D100BF00BFBDE8F0872DE9F0418046E2
:100DD0000E46174600247D0131464046FFF737FF97
:100DE00000BF06E03149485DFFF7D0FE6D1C601C76
:100DF000C4B2102CF6DB701CC1B24046FFF727FFCF
:100E0000002406E02949485DFFF7C0FE6D1C601C08
:100E1000C4B2102CF6DBBDE8F0812DE9F05F064688
:100E20000F4690461C46DDF828A04FF0000BE11756
:100E300004EB5171C910A4EBC10131B92046E1178F
:100E400004EB5171C1F3C70506E02046E11704EB3E
:100E50005171C910491CCDB23D4614E029463046B7
:100E6000FFF7F5FEB1460AE059460BF1010B1AF8FF
:100E70000100FFF78BFE09F1010000F0FF09C145F9
:100E8000F2DB681CC5B2A542E8DBBDE8F09F0000BC
:100E9000000C0140801A06000054004001000300CD
:100EA00082000700E44100080C44000824000020F0
:100EB0002DE9F04104460D4616461F46F9480460E8
:100EC00085808660878102469188106803F038F833
:100ED000F44A9189906803F033F8F249486A8047F0
:100EE000642000F09CFDEF49486A8047642000F0D0
:100EF00096FDBDE8F08170B505460C46E1B2284686
:100F000000F053FF70BD2DE9FE4306460F4615461F
:100F10004FF00209304602F0AFFF0290384602F06F
:100F2000ABFF0190284602F0A7FF00900020DD49AA
:100F3000888102980C300199891C01440098801C1A
:100F40000C181021D74882898089401CD54B988184
:100F500018468068815400BF2046E21704EB5262B5
:100F6000D211A4EBC212D1B2E21704EB5262D41137
:100F7000002C01DD41F08001CA4882898089401C33
:100F8000C84B9881184680688154002CE4DC00210D
:100F9000184682898089401C98811846806881544F
:100FA0000421184682898089401C988118468068EF
:100FB00081544D22184681898089401C98811846A9
:100FC000806842545122184681898089401C98814A
:100FD0001846806842545421184682898089401CF2
:100FE00098811846806881545422184681898089E6
:100FF000401C988118468068425404211846828912
:101000008089401C9881184680688154C222184605
:1010100081898089401C988118468068425400224A
:10102000184681898089401C9881184680684254FE
:101030003C21184682898089401C98811846806826
:1010400081549DF80920184681898089401C988127
:101050001846806842549DF8081018468289808995
:10106000401C9881184680688154194689681A4640
:10107000928988183146029A02F01DFF89488089BA
:1010800002990844874988810198002823DD9DF84A
:101090000510844882898089401C824B98811846BB
:1010A000806881549DF80410184682898089401C0C
:1010B0009881184680688154194689681A46928931
:1010C00088183946019A02F0F6FE7648808901991F
:1010D0000844744988810098002823DD9DF8011098
:1010E000704882898089401C6E4B988118468068C0
:1010F00081549DF80010184682898089401C98818F
:10110000184680688154194689681A469289881859
:101110002946009A02F0CFFE62488089009908446F
:10112000604988814FF002094FF000082AE05D4ACB
:101130009188106802F004FF5A4A91899068FFF77D
:10114000DAFE4FF01E0816E056480068007856494F
:10115000097888420CD15348006840785249497850
:10116000884205D151A002F0BBFD0120BDE8FE83FD
:10117000642000F054FC5FEA0800A8F1010101F0CE
:10118000FF08E1D15FEA0900A9F1010101F0FF09BF
:10119000CDD100BFEAE72DE9F84306460F461546D4
:1011A0004FF00208304602F067FE00900098001DE4
:1011B0000DB1012100E00021441800203949888147
:1011C00055B18221374882898089401C354B9881EE
:1011D00018468068815409E0A221324882898089BA
:1011E000401C304B988118468068815400BF2046CF
:1011F000E21704EB5262D211A4EBC212D1B2E21791
:1012000004EB5262D411002C01DD41F0800125482D
:1012100082898089401C234B9881184680688154BC
:10122000002CE4DC0021184682898089401C9881CA
:101230001846806881540121184682898089401CA3
:1012400098811846806881549DF80110184682895B
:101250008089401C98811846806881549DF8001050
:10126000184682898089401C98811846806881547C
:10127000194689681A46928988183146009A02F000
:101280001AFE08488089009908440649888145B1BA
:10129000084681898089401C024A908110468068F6
:1012A00047543FE0A4040020FC49000861616161EB
:1012B000616161616161616161616161616161611E
:1012C0006161616161616161616161616161610D62
:1012D0000A000000A84A9188106802F031FEA64A70
:1012E00091899068FFF707FE4FF01E0913E0A248AE
:1012F00000680078A1490978884209D19E480068B1
:1013000040789E494978884202D10120BDE8F8839F
:10131000642000F084FB5FEA0900A9F1010101F0FB
:10132000FF09E4D15FEA0800A8F1010101F0FF081C
:10133000D0D1B8F1000F01D00120E7E70020E5E7A8
:101340002DE9F843074688461646384602F094FDD4
:101350000090404602F090FD0546002086498881B5
:101360001EB10098001D441902E00098801C441929
:101370003021814882898089401C7F4B98811846A2
:101380008068815400BF2046E21704EB5262D211FC
:10139000A4EBC212D1B2E21704EB5262D411002CBA
:1013A00001DD41F08001744882898089401C724BC4
:1013B0009881184680688154002CE4DC9DF8011067
:1013C000184682898089401C98811846806881541B
:1013D0009DF80020184681898089401C9881184614
:1013E00080684254194689681A4692898818394695
:1013F000009A02F060FD60488089009908445E49C7
:101400008881CEB15E4841785B4882898089401CE2
:10141000594B98811846806881545948027818467B
:1014200081898089401C98811846806842545448BC
:101430000088401C524908804F4989684E4A928969
:1014400088182A46414602F036FD4B4880892844D8
:10145000494988810A4691899068FFF74CFD4648C2
:10146000007BBDE8F88310B502214648FFF743FD35
:1014700010BD10B502214448FFF73DFD10BD2DE918
:10148000F047B2B08046894692461E4600240025A9
:10149000002700BF09E018F8040028B118F804205C
:1014A00028466D1C19A90A54641C642CF3DB002027
:1014B00019A94855002404E019A8005D0DF804009E
:1014C000641C19A802F0D8FC401CA042F4D80025E6
:1014D000002421E02FB91DF80400484508D1012758
:1014E00006E0012F04D11DF80400504500D1022769
:1014F000012F04D11DF8040070556D1C0BE0022F64
:1015000009D11DF804007055002071194870681E3B
:1015100032B0BDE8F087641C684602F0ADFCA04222
:10152000D8D80020F4E770B59AB005460E4601AB56
:10153000232211462846FFF7A2FFC4B2002C15DD76
:10154000224601A911A002F0CBFB16A101A802F0CE
:1015500081FC18B100201549086007E014A101A81A
:1015600002F078FC10B1012010490860642101A844
:1015700002F008FD1AB070BDA4040020064A00085D
:10158000CC040020024A0008004A00086275666622
:101590006572203D202573202C206C656E2025640B
:1015A0000D0A00006F70656E00000000B0812142DE
:1015B000636C6F736500000070B505460E461446F7
:1015C0000A2094FBF0F084B202E00A2000F027FA2F
:1015D0003146284602F03EFC20B92000A4F101016A
:1015E0008CB2F2D10CB1012070BD0020FCE72DE9D6
:1015F000F04104460D4616461F46B84804608580F3
:101600008660878102469188106802F099FCB34A8F
:101610009189906802F094FCB048016BB0A08847B3
:101620004FF4FA6000F0FBF9AC49C86A80474FF408
:10163000FA7000F0F4F9A948016BA9A088474FF4AB
:10164000487000F0ECF9A5490869804710B90020FE
:10165000BDE8F081A14A9188106802F071FC9F48B2
:10166000016BA2A088479D494FF4FA720868A1A1B6
:10167000FFF7A2FF08B90020EAE70120E8E710B56C
:101680009649C86A80474FF4FA7000F0C8F9934849
:10169000016B99A0884710BD10B5052411E08F4A51
:1016A0009188106802F04CFC8C48016B96A088472A
:1016B0008A49C82208688FA1FFF77EFF08B1012080
:1016C00010BD2000A4F10101CCB2E8D100BFF7E7C2
:1016D00070B505460E46052410E0804A91881068D2
:1016E00002F02EFC7D48016B89A088477B49C82207
:1016F000086880A1FFF760FF00B104E02000A4F1BA
:101700000101CCB2E9D100BF0CB9002070BD0224A8
:101710001EE0724A9189906802F012FC6F4A91882B
:10172000106802F00DFC6D4933462A4688687DA199
:1017300002F0E2FA694A9068116B884767494FF4F2
:10174000FA5208686BA1FFF737FF08B10120DDE707
:101750002000A4F10101CCB2DBD100BFD6E7F8B57F
:1017600005460E4617465D49C86A80474FF4FA7031
:1017700000F055F902241EE0584A9188106802F0E2
:10178000DFFB564A9189906802F0DAFB53490097D3
:1017900033462A4688686AA102F0AEFA4F4A90683A
:1017A000116B88474D494FF4FA5208686BA1FFF757
:1017B00003FF00B104E02000A4F10101CCB2DBD1B1
:1017C00000BF0CB90020F8BD4449886A804708B9B9
:1017D0000020F8E7022411E0404A9188106802F0E6
:1017E000AFFB3E48016B5FA088473C49C8220868B0
:1017F00060A1FFF7E1FE08B10120E4E72000A4F1B9
:101800000101CCB2E8D100BFDDE710B53349C86AA9
:1018100080474FF4FA7000F002F910E02F4A9188E7
:10182000106802F08DFB2D48016B53A088472B49AF
:10183000C822086854A1FFF7BFFE00B104E02000F1
:10184000A4F10101CCB2E9D100BF0CB1012010BD5F
:101850000020FCE770B505460C46204A91881068C8
:1018600002F06EFBE1B2284600F09FFA70BD10B5A1
:1018700004461A4A9188106802F062FB204600F084
:1018800089FA10BD10B5022411E0144A918810683D
:1018900002F056FB1148016B3DA088470F49C82252
:1018A000086814A1FFF788FE08B1012010BD2000D0
:1018B000A4F10101CCB2E8D100BFF7E710B50748A9
:1018C000016B37A08847322000F0A9F80348016B6C
:1018D00033A08847322000F0A2F810BDD0040020C9
:1018E00041542B5253540D0A00000000415445301E
:1018F0000D0A00004F4B000041542B524553544FEA
:1019000052450D0A0000000041540D0A000000007D
:1019100041542B43574D4F44455F4355523D310D84
:101920000A00000041542B43574A41505F4355522F
:101930003D222573222C222573220D0A000000006F
:1019400041542B43495053544152543D2225732254
:101950002C222573222C25640D0A0000434F4E4E85
:101960004543540041542B43495053454E440D0ABE
:10197000000000003E00000041542B434950434CFE
:101980004F53450D0A000000434C4F53454400009F
:1019900041542B4349504D4F44453D310D0A000001
:1019A0002B2B2B0010B56FF0040000F0E6FA2E4848
:1019B00000682E49B0FBF1F02D4908700846007808
:1019C00000EB4001C1EBC0104FF6FF7101EAC0000F
:1019D0002849088010BD0146254A12784A434FF035
:1019E000E0235A6100229A611A46126942F001020C
:1019F0001A6100BF4FF0E022106900F001021AB135
:101A000000F48032002AF5D04FF0E022126922F073
:101A100001024FF0E0231A6100229A6170470146EB
:101A2000144A12884A434FF0E0235A6100229A6117
:101A30001A46126942F001021A6100BF4FF0E0221B
:101A4000106900F001021AB100F48032002AF5D0CA
:101A50004FF0E022126922F001024FF0E0231A61F8
:101A600000229A61704700001000002000127A00E6
:101A7000080500200A050020014600BF704700BF8E
:101A8000DF4A128802F04002002AF9D0C2B2DC4BD1
:101A90001B1D1A80704710B586B00446012144F220
:101AA000040000F0A5FD4FF40070ADF81400032011
:101AB0008DF8160018208DF8170005A9D14800F000
:101AC000DBFA4FF48060ADF8140004208DF81700A5
:101AD00005A9CC4800F0D0FA01940020ADF8080028
:101AE000ADF80A00ADF80C00ADF810000C20ADF810
:101AF0000E0001A9C24800F022FE012240F2255149
:101B0000BF4800F0B4FE0121BD4800F0A4FE06B0BD
:101B100010BD10B586B004460121042000F068FD18
:101B20000121480400F071FD0420ADF814000320E9
:101B30008DF8160018208DF8170005A9B14800F09F
:101B40009BFA0820ADF8140004208DF817000194CA
:101B50000020ADF80800ADF80A00ADF80C00ADF8B3
:101B600010000C20ADF80E0001A9A74800F0E7FD19
:101B7000012240F22551A44800F079FE0121A2483B
:101B800000F069FE06B010BD10B540F225519C482A
:101B900000F052FF10B39A4800F0CEFEC4B29B484A
:101BA000008800F40040C8B99848008800F48040DC
:101BB00060B10A2C03D000209449088020E09348AB
:101BC000008840F400409149088019E00D2C06D1AE
:101BD0008E48008840F480408C49088010E08B4893
:101BE0000088C0F30D008A490C5488480088401CC6
:101BF0008649088008460088C72801DD0020088043
:101C000010BD10B540F225517F4800F015FF10B30C
:101C10007D4800F091FEC4B27E48008800F4004088
:101C2000C8B97C48008800F4804060B10A2C03D019
:101C300000207849088020E07648008840F4004081
:101C40007449088019E00D2C06D17248008840F4D0
:101C500080407049088010E06E480088C0F30D0095
:101C60006D490C546B480088401C6A49088008463E
:101C70000088C72801DD0020088010BD10B586B09F
:101C800004460121082000F0B3FC0121880400F083
:101C9000BCFC4FF48060ADF8140003208DF81600F2
:101CA00018208DF8170005A95C4800F0E5F94FF4FD
:101CB0000060ADF8140004208DF8170005A95748FE
:101CC00000F0DAF901940020ADF80800ADF80A0040
:101CD000ADF80C00ADF810000C20ADF80E0001A915
:101CE0004F4800F02CFD012240F225514C4800F0F5
:101CF000BEFD012240F22441494800F0B8FD012117
:101D0000474800F0A8FD06B010BD10B540F22551BF
:101D1000434800F091FEC8B14148001D0088414988
:101D2000087041480078FF2802DB00203E49087017
:101D30003C4801783C4802780078401C3A4B1870C7
:101D40003A488154184600781946087040F22441F8
:101D5000334800F071FE70B13148001D00883149F0
:101D600008702F48008808702F4800783049888014
:101D700000202D49087010BD10B5044621462848A2
:101D800000F0D6FD00BF4021254800F03FFE0028AE
:101D9000F9D010BD10B5044603E014F8010BFFF7AD
:101DA000EBFF20780028F8D110BD70B504460D4631
:101DB00003E014F8010BFFF7DFFF2800A5F1010194
:101DC000CDB2F6D170BD70B504460D462946204609
:101DD00000F0AEFD00BF8021204600F017FE002875
:101DE000F9D070BD70B506460C46002500BF615D98
:101DF0003046FFF7E8FF6D1C605D0028F7D170BD2D
:101E00000038014000080140004400401005002057
:101E100094070020120500205C080020000C0140FF
:101E200000480040180500201905002094060020F5
:101E3000A404002008B54FF4A06000F04FF81C2067
:101E40008DF8000001208DF8010002208DF80200BD
:101E500001208DF80300684600F045F825208DF834
:101E6000000000208DF8010003208DF80200012001
:101E70008DF80300684600F036F827208DF8000042
:101E800001208DF8010005208DF8020001208DF859
:101E90000300684600F027F808BD000009488047A5
:101EA00009480047FEE7FEE7FEE7FEE7FEE7FEE73C
:101EB000FEE7FEE7FEE7FEE704480549054A064B54
:101EC00070470000C306000831010008880900209F
:101ED000880F0020880B0020880B00203149014327
:101EE000314A1160704770B5002100230F22C47879
:101EF00004B32D4C246804F4E064C4F5E064210AC2
:101F0000C1F10403CA40447804FA03F18478144010
:101F100021430901254C0678A155047804F01F05DA
:101F20000124AC4005786D11AD0005F1E025C5F840
:101F3000004109E0047804F01F050124AC401C4D69
:101F40000678761145F8264070BD1A4A0A400243C9
:101F5000154B1B1F1A60704739B1134A121D1268C6
:101F60000243114B1B1D1A6006E00F4A121D126836
:101F700082430D4B1B1D1A607047042808D14FF097
:101F8000E021096941F004014FF0E022116107E00E
:101F90004FF0E021096921F004014FF0E0221161C6
:101FA000704700000000FA050CED00E000E400E0DE
:101FB00080E100E080FFFF1F10B50446CC4884425A
:101FC00008D10121042000F02DFB0021042000F0A5
:101FD00029FB46E0C748844208D10121082000F0CF
:101FE00021FB0021082000F01DFB3AE0C24884429A
:101FF00008D10121102000F015FB0021102000F075
:1020000011FB2EE0BD48844208D10121202000F0C0
:1020100009FB0021202000F005FB22E0B8488442A3
:1020200008D10121402000F0FDFA0021402000F0FD
:10203000F9FA16E0B348844208D10121802000F06B
:10204000F1FA0021802000F0EDFA0AE0AE48844267
:1020500007D10121801500F0E5FA0021A01500F05C
:10206000E1FA10BD10B50121084600F0DBFA0021AD
:10207000012000F0D7FA10BD2DE9F04102460025FD
:102080000026002000230024002791F803C00CF054
:102090000F0591F803C00CF0100CBCF1000F03D039
:1020A00091F802C04CEA050591F800C0BCF1000FA0
:1020B00031D0146800202BE04FF0010C0CFA00F333
:1020C000B1F800C00CEA03069E4220D183004FF015
:1020D0000F0C0CFA03F7BC4305FA03FC4CEA0404AA
:1020E00091F803C0BCF1280F06D14FF0010C0CFA97
:1020F00000FCC2F814C00AE091F803C0BCF1480F1C
:1021000005D14FF0010C0CFA00FCC2F810C0401CC5
:102110000828D1D31460B1F800C0BCF1FF0F34DD42
:10212000546800202EE000F1080C4FF0010808FA76
:102130000CF3B1F800C00CEA03069E4221D18300E3
:102140004FF00F0C0CFA03F7BC4305FA03FC4CEA02
:10215000040491F803C0BCF1280F05D100F1080C6C
:1021600008FA0CF8C2F8148091F803C0BCF1480FCB
:1021700007D100F1080C4FF0010808FA0CF8C2F87A
:102180001080401C0828CED35460BDE8F0814FF683
:10219000FF710180022181700421C17070470246E5
:1021A000002093680B400BB1012000E00020704735
:1021B0000146886880B2704702460020D3680B4011
:1021C0000BB1012000E0002070470146C86880B2D2
:1021D000704701617047416170470AB1016100E0D9
:1021E00041617047C16070474FF480320A43826199
:1021F0008161826182698269704702460020434B97
:1022000018684FF68073184040EA021008433F4BAD
:10221000186070473E49C8617047F0B50A46002310
:1022200000240021002500F00046B6F1004F02D145
:10223000364EF16901E0354E7168C0F3034583B253
:1022400000F44016B6F5401F08D121F070612F4E02
:10225000766826F070662D4F7E6012E000F48016DE
:10226000B6F5801F06D1032606FA05F4A14341F016
:10227000706106E0460D360103FA06F6B14341F0FF
:10228000706122B1460D360103FA06F6314300F0C3
:102290000046B6F1004F02D11C4EF16101E01B4E29
:1022A0007160F0BD30B500228B071C0F0F2303FABD
:1022B00004F2164B08338C1053F824309343134C1C
:1022C00008348D1044F8253023468C1053F8243000
:1022D0008C07240F00FA04F423430C4C08348D10AF
:1022E00044F8253030BD0A49DC31086070470000F1
:1022F00000080140000C01400010014000140140A2
:1023000000180140001C0140002001400000014075
:1023100000002042DF48006840F00100DD4908600D
:1023200008464068DC490840DA49486008460068C9
:10233000DA490840D74908600846006820F4802040
:1023400008600846406820F4FE0048604FF41F0013
:1023500088607047CF49096821F48031CD4A116007
:102360001146096821F480211160B0F5803F03D047
:10237000B0F5802F0ED106E0C649096841F48031DE
:10238000C44A116007E0C349096841F4A021C14A69
:10239000116000E000BF00BF704710B50146002289
:1023A000002300204A11012A02D1BA4C236806E01A
:1023B000022A02D1B74C236A01E0B64C636A01F0ED
:1023C0001F02012494401C400CB1012000E00020B9
:1023D00010BD38B5002000900024002500BF31203A
:1023E000FFF7DBFF05460098401C00900098B0F511
:1023F000A06F01D0002DF2D03120FFF7CEFF08B141
:10240000012400E00024204638BD01460020A14AF6
:10241000106820F0F80040EAC10010607047A04941
:1024200008607047024600209A4B586820F47C10E0
:1024300042EA01031843974B586070479849086671
:10244000704701460020934A506820F0030008437B
:10245000506070478F48406800F00C00704701469C
:1024600000208C4A506820F0F0000843506070470C
:1024700001460020874A506820F4E060084350601D
:10248000704701460020834A506820F4605040EABB
:10249000C1005060704729B17E4A527A02437D4B99
:1024A0005A7204E07B4A527A82437A4B5A727047DE
:1024B0007B49D8310860704701460020754A506852
:1024C00020F440400843506070470021714A203298
:1024D0001170704A82F82010012802D004280AD115
:1024E00004E001216B4A2032117005E00521694AA0
:1024F0002032117000E000BF00BF704769490860DA
:1025000070476449096A0143624A1162704765492C
:1025100044390860704730B50021002200240023B0
:102520005C4D6D6805F00C0121B1042905D0082926
:1025300023D105E05C4D056022E05B4D05601FE0A6
:10254000544D6D6805F47012524D6D6805F4803479
:10255000022505EB92421CB9544D554305600BE032
:102560004C4D6D6805F400351DB1504D5543056067
:1025700002E04D4D5543056002E04B4D056000BF44
:1025800000BF444D6D6805F0F0010909484D6B5CD2
:102590000568DD4045603F4D6D6805F4E061090A5E
:1025A000434D6B5C4568DD4085603A4D6D6805F4D0
:1025B0006051C90A3E4D6B5C4568DD40C560354DD4
:1025C0006D6805F44041890B3A4D6B5CC568B5FBFD
:1025D000F3F5056130BD29B12E4A526902432D4BF6
:1025E0005A6104E02B4A526982432A4B5A61704770
:1025F00029B1284A92690243264B9A6104E0254A90
:1026000092698243234B9A61704729B1214AD2696A
:102610000243204BDA6104E01E4AD26982431D4B1B
:10262000DA61704729B11B4AD2680243194BDA605C
:1026300004E0184AD2688243164BDA60704729B129
:10264000144A12690243134B1A6104E0114A1269D9
:102650008243104B1A617047124940390860704735
:102660000F49C86470470B49C87170470948406AF0
:1026700040F0807007494862704701460020054AD3
:1026800092680A400AB1012000E000207047014929
:1026900088727047001002400000FFF8FFFFF6FE4E
:1026A000000042428004424200127A0000093D00CC
:1026B0001A0500202A05002010B50446FB48844274
:1026C00009D101218803FFF7ADFF00214FF48040BD
:1026D000FFF7A8FF32E0F648844209D101214804FF
:1026E000FFF7ADFF00214FF40030FFF7A8FF25E012
:1026F000F048844209D101218804FFF7A0FF00219E
:102700004FF48020FFF79BFF18E0EB48844209D18B
:102710000121C804FFF793FF00214FF40020FFF7C9
:102720008EFF0BE0E548844208D101210805FFF740
:1027300086FF00214FF48010FFF781FF10BD2DE9C7
:10274000F04786B005460E460024A24600BFA146CB
:102750000027B08900B100BF2F462C8A4CF6FF70CD
:102760000440F08804432C82AC894EF6F3100440F8
:10277000B08831890843718908430443AC81AC8A2D
:102780004FF6FF400440B0890443AC8201A8FFF734
:10279000C2FEC648874202D1DDF810A001E0DDF894
:1027A0000CA0A88900F4004040B10AEBCA0000EB7D
:1027B0000A1031684900B0FBF1F807E00AEBCA00E3
:1027C00000EB0A1031688900B0FBF1F86420B8FB17
:1027D000F0F004012009642101FB1089A88900F4AC
:1027E000004040B1322000EBC900B0FBF1F000F036
:1027F0000700044308E0322000EB09106421B0FB1D
:10280000F1F000F00F0004432C8106B0BDE8F08722
:102810004FF41651016000218180C18001810C219B
:10282000418100218181704710B502460020108A45
:102830004FF2FF0318400B884C8823438C882343B6
:10284000CC8823431843108210BD002101804180B1
:102850008180C180704721B1828942F40052828117
:1028600004E082894DF6FF731A4082817047F0B50B
:102870000346002400260025002040F66A17B942CE
:1028800000D100BF1846C1F3421401F01F06012712
:1028900007FA06F5012C01D10C3004E0022C01D11D
:1028A000103000E014301AB107682F43076002E0CF
:1028B0000768AF430760F0BD1AB1838A0B43838278
:1028C00002E0838A8B4383827047028A4FF6F0735B
:1028D0001A400282028A0A430282704782894FF2BA
:1028E000FF731A40828182890A438281704721B135
:1028F000828942F00202828104E082894FF6FD73F0
:102900001A4082817047028A4FF6DF731A400282B2
:10291000028A0A430282704721B1028A42F480424D
:10292000028204E0028A4BF6FF731A40028270476B
:10293000C1F308028280704701468888C0F308000E
:102940007047818941F0010181817047028BD2B2C9
:102950000283028B42EA012202837047028B02F457
:102960007F420283028B0A430283704721B1828A2D
:1029700042F02002828204E0828A4FF6DF731A401E
:102980008282704721B1828A42F01002828204E082
:10299000828A4FF6EF731A408282704721B1828A91
:1029A00042F00802828204E0828A4FF6F7731A40EE
:1029B0008282704721B1828942F40042828103E021
:1029C0008289C2F30E028281704721B1828A42F469
:1029D0000062828204E0828A4FF2FF731A40828290
:1029E0007047828A4FF6FB731A408282828A0A43BA
:1029F0008282704721B1828A42F00202828204E020
:102A0000828A4FF6FD731A40828270470246002088
:102A1000B1F5007F00D100BF13880B400BB101203E
:102A200000E00020704701F40072B2F5007F00D191
:102A300000BFCA430280704770B5024600240023DD
:102A40000025002040F66A16B14200D100BFC1F354
:102A5000421501F01F03012606FA03F3012D02D1EE
:102A60009689334006E0022D02D1168A334001E0F8
:102A7000968A33400C12012606FA04F41688344074
:102A800013B10CB1012000E0002070BD10B5002290
:102A9000002340F66A14A14200D100BF0A120124AB
:102AA0009440A3B2DC43048010BD00000038014014
:102AB0000044004000480040004C004000500040EE
:102AC00010B50446F748844209D101214805FFF7B3
:102AD000B6FD00214FF40010FFF7B1FD08E0012121
:102AE0008805FFF7ACFD00214FF48000FFF7A7FD3C
:102AF00010BD2DE9F04385B004460D460026B146D1
:102B00000427DFF8A483A6884FF6C0700640684605
:102B1000FFF701FDDDF80880E448B8FBF0F01FFA8C
:102B200080F946EA0906A68020884FF6FE71084023
:102B300020800026DE49286888420CD8286840009A
:102B4000B8FBF0F087B2042F00DA04273E4309F106
:102B50000100208427E0E8884BF6FF71884206D107
:102B6000286800EB4000B8FBF0F087B209E0286865
:102B700000EBC00101EB0010B8FBF0F087B247F4A6
:102B80008047C7F30B0008B947F0010747F400403E
:102B900006434FF4967009FB00F04FF47A7190FBF6
:102BA000F1F0401C2084A683208840F001002080A2
:102BB00026884FF6F5300640A88869890843064301
:102BC0002680A88929890843208105B0BDE8F083C3
:102BD00041F288310160002181804BF6FF71C18094
:102BE0000021018141814FF480418181704721B1F1
:102BF000028842F00102028004E002884FF6FE7370
:102C00001A400280704721B1828842F400628280BB
:102C100004E082884FF2FF731A408280704721B12E
:102C2000828842F48052828004E082884EF6FF73EC
:102C30001A408280704721B1028842F4807202807B
:102C400004E002884FF6FF631A400280704721B10A
:102C5000028842F40072028004E002884FF6FF53BB
:102C60001A400280704721B1028842F480620280DB
:102C700004E002884FF6FF331A40028070470A468C
:102C8000002181894FF60173194002F0FE031943B8
:102C90008181704721B1828942F00102828104E082
:102CA00082894FF6FE731A408281704721B10288F3
:102CB00042F04002028004E002884FF6BF731A40DF
:102CC000028070471AB183880B43838002E08388B7
:102CD0008B4383807047018270470146088AC0B2E7
:102CE000704712B141F0010102E04FF6FE73194046
:102CF0000182704708B502460020009000920098BB
:102D0000084400900098008808BD21B1028842F470
:102D10000042028003E00288C2F30E020280704784
:102D2000B1F5006F04D1028842F40062028004E031
:102D300002884FF2FF731A4002807047B1F5005FBE
:102D400004D1028842F40052028004E002884DF669
:102D5000FF731A400280704721B1028842F480520A
:102D6000028004E002884EF6FF731A40028070472A
:102D7000B1F5006F04D1028842F40062028004E0E1
:102D800002884FF2FF731A400280704721B1028817
:102D900042F02002028004E002884FF6DF731A40FE
:102DA000028070470146088B0012704721B10288EB
:102DB00042F01002028004E002884FF6EF731A40DE
:102DC0000280704721B9028842F08002028004E04C
:102DD00002884FF67F731A4002807047B1F5804F2A
:102DE00005D0828B4BF6FF731A40828303E0828BFF
:102DF00042F480428283704770B502460024002569
:102E000000230020958A138B1B0445EA030626F055
:102E10007F4404EA01068E4201D1012000E0002037
:102E200070BD10B501460020002300228B8A0A8B5A
:102E3000120443EA020424F07F4010BD0CB50246A0
:102E4000002000230193009300920B0F019321F0C7
:102E50007F41019B1BB1009B1433009303E0090CDD
:102E6000009B18330093009B1B680B400BB10120A3
:102E700000E000200CBD002221F07F42D34383827A
:102E8000704730B5024600200023948801F0E065C9
:102E900004EA154321F07F41948A0C4054B14BB1B0
:102EA000012008E00054004000127A0040420F0068
:102EB000A0860100002030BD002221F07F42D343D4
:102EC0008382704710B50446FE48844208D1012130
:102ED000C014FFF7A7FB0021E014FFF7A3FBC4E039
:102EE000B4F1804F08D101210846FFF7A8FB00216B
:102EF0000120FFF7A4FBB8E0F348844208D1012188
:102F00000220FFF79CFB00210220FFF798FBACE0BA
:102F1000EE48844208D101210420FFF790FB0021F4
:102F20000420FFF78CFBA0E0E948844208D101218E
:102F30000820FFF784FB00210820FFF780FB94E0C6
:102F4000E448844208D101211020FFF778FB0021DA
:102F50001020FFF774FB88E0DF48844208D101218C
:102F60002020FFF76CFB00212020FFF768FB7CE0AE
:102F7000DA48844208D101214014FFF753FB0021B5
:102F80006014FFF74FFB70E0D548844209D101215E
:102F9000C804FFF747FB00214FF40020FFF742FB76
:102FA00063E0D048844209D101210805FFF73AFBCC
:102FB00000214FF48010FFF735FB56E0CA488442E9
:102FC00009D101214805FFF72DFB00214FF4001026
:102FD000FFF728FB49E0C548844208D10121402081
:102FE000FFF72DFB00214020FFF729FB3DE0C04803
:102FF000844208D101218020FFF721FB002180209D
:10300000FFF71DFB31E0BB48844208D10121801548
:10301000FFF715FB0021A015FFF711FB25E0B648CF
:10302000844209D101210804FFF7FCFA00214FF482
:103030008030FFF7F7FA18E0B048844209D1012147
:103040004804FFF7EFFA00214FF40030FFF7EAFAE7
:103050000BE0AB48844208D101218804FFF7E2FA73
:1030600000214FF48020FFF7DDFA10BD0022028816
:10307000944B98420ED0994B98420BD0B0F1804FB0
:1030800008D0914B984205D0904B984202D0904B7B
:10309000984204D14FF68F731A404B881A438D4BD8
:1030A000984207D08C4B984204D04FF6FF431A4009
:1030B000CB881A4302808B8883850B880385814BDC
:1030C00098420BD0854B984208D08B4B984205D044
:1030D0008A4B984202D08A4B984201D10B7A0386E0
:1030E00001238382704770B5002400220023058CE1
:1030F0004FF6FE7635400584028C8388048B4FF6AC
:103100008F752C40B51E2C400D882C43751E2A400F
:103110000D892A434D882A436A4DA8420BD06F4D32
:10312000A84208D0744DA84205D0744DA84202D0E0
:10313000734DA84213D14FF6F7752A404D892A43A3
:103140004FF6FB752A408D882A434FF6FF652B40CA
:103150004FF6FF552B408D892B43CD892B43838020
:103160000483CD888586028470BD70B5002400225A
:103170000023058C4FF6EF7635400584028C83885A
:10318000048B48F6FF752C404FF6FF452C400D8808
:103190004FF6FF7606EA05252C434FF6DF752A40E9
:1031A0000D8906EA05152A434D8806EA05152A43C6
:1031B000444DA84202D0494DA8421DD14FF67F751B
:1031C0002A404D894FF6FF7606EA05152A434FF649
:1031D000BF752A408D8806EA05152A434FF6FF354C
:1031E0002B404FF2FF752B408D8906EA85052B4356
:1031F000CD8906EA85052B4383800483CD88058726
:10320000028470BD70B5002400220023058C4FF6A7
:10321000FF6635400584028C8388848B4FF68F755A
:103220002C404FF6FC752C400D882C434FF6FF5573
:103230002A400D894FF6FF7606EA05252A434D8878
:1032400006EA05252A431F4DA84202D0234DA84275
:103250001DD14FF2FF752A404D894FF6FF7606EAE1
:1032600005252A434FF6FF352A408D8806EA0525B5
:103270002A434EF6FF752B404DF6FF752B408D8986
:1032800006EA05152B43CD8906EA05152B438380F5
:103290008483CD888587028470BD70B500220023A9
:1032A0000024058C4EF6FF7635400584038C848817
:1032B000828B48F6FF752A404FF6FF452A400D885D
:1032C00020E00000002C0140000400400008004005
:1032D000000C004000100040001400400034014089
:1032E000004C0140005001400054014000180040D3
:1032F000001C00400020004000400140004401400C
:10330000004801404FF6FF7606EA05252A434DF6B0
:10331000FF752B400D8906EA05352B434D8806EADB
:1033200005352B43FA4DA84202D0FA4DA84208D1E8
:103330004BF6FF752C408D894FF6FF7606EA851512
:103340002C4384808283CD88A0F84050038470BDD4
:10335000828B4FF2FF331A408283828B4FF6FF73CA
:1033600003EA01231A4382837047F0B50C461546E1
:10337000002200210026078C4EF6FF7C07EA0C078E
:103380000784828B018C4FF6FF7707EA043640F6FC
:10339000FF473A404FF6FF7707EA05273A434FF6D3
:1033A000FF7707EA03373A43D94FB8420ED0D94FD7
:1033B000B8420BD0B0F1804F08D0D74FB84205D0FB
:1033C000D64FB84202D0D64FB84206D14DF6FF775D
:1033D000394046F48057394305E047F6FF573940F6
:1033E00044F48057394382830184F0BD828B4FF6C9
:1033F000F3731A408283828B0A4382837047F0B54D
:103400000C461546002200210026078C4FF6FF6C63
:1034100007EA0C070784828B018C4FF6FF7707EAD7
:1034200004264FF60C773A404FF6FF7707EA03176A
:103430002F433A43B64FB8420ED0B64FB8420BD0E6
:10344000B0F1804F08D0B44FB84205D0B34FB84266
:1034500002D0B34FB84206D14FF6FF57394046F479
:103460008077394305E04FF2FF57394044F48077C5
:10347000394382830184F0BD028B4FF2FF331A403F
:103480000283028B4FF6FF7303EA01231A43028380
:103490007047F0B50C461546002200210026078C27
:1034A0004FF6EF7C07EA0C070784028B018C4FF67E
:1034B000FF7707EA041640F6FF473A404FF6FF77DA
:1034C00007EA03373A434FF6FF7707EA05273A43FF
:1034D0008F4FB8420ED08F4FB8420BD0B0F1804F13
:1034E00008D08D4FB84205D08C4FB84202D08C4FD7
:1034F000B84206D14FF6DF77394046F0100739431E
:1035000005E04FF65F77394044F0100739430283F6
:103510000184F0BD028B4FF6F3731A400283028BD5
:103520000A4302837047F0B50C461546002200217D
:10353000068C4FF6FE773E400684028B018C4FF6D8
:103540000C7632407E1C06EA03162E433243704E40
:10355000B0420ED06F4EB0420BD0B0F1804F08D0C9
:103560006D4EB04205D06D4EB04202D06C4EB042AE
:1035700006D14FF6FD76314044F00106314305E0B7
:103580004FF6F576314044F0010631430283018461
:10359000F0BD70B505460C465D4885420ED05D48CD
:1035A00085420BD0B5F1804F08D05B48854205D0ED
:1035B0005A48854202D05A48854200D100E000BFF7
:1035C000208850B92389A28861882846FFF7ABFF7D
:1035D000E1882846FFF79EFF25E0208804280AD1CD
:1035E0002389A28861882846FFF753FFE18828468F
:1035F000FFF742FF17E0208808280AD12389A28814
:1036000061882846FFF7FBFEE1882846FFF7EEFEBB
:1036100009E02389A28861882846FFF7A6FEE18891
:103620002846FFF795FE70BD2DE9F04105460C4692
:1036300000260127608808B9022600E00026A0883D
:10364000012801D1022700E001272088A0B92389A1
:10365000A28861882846FFF766FFE1882846FFF7C1
:1036600059FF23893A4631462846FFF712FFE18881
:103670002846FFF701FF13E02389A28861882846C6
:10368000FFF707FFE1882846FFF7F6FE23893A4651
:1036900031462846FFF747FFE1882846FFF73AFF03
:1036A000BDE8F0810A884B881A438B881A43CB887F
:1036B0001A430B891A434B891A438B891A43A0F882
:1036C000442070474FF6FF71818000210180C18046
:1036D0004180017270470021018041808180C1805A
:1036E000018141818181C181704700210180418038
:1036F000012181800021C18001817047002101806A
:1037000041808180C18001814181818170470000B9
:10371000002C01400034014000040040000800403B
:10372000000C004021B1028842F00102028004E056
:1037300002884FF6FE731A400280704731B1B0F82C
:10374000442042F40042A0F8442005E0B0F84420B0
:10375000C2F30E02A0F8442070471AB183890B43CC
:10376000838102E083898B43838170478182704724
:1037700041EA0203A0F8483070471AB183890B432D
:10378000838102E083898B438381704701894FF6EF
:10379000F8721140018170470A46002101894FF6F5
:1037A0008F73194011430181704730B504460D46AF
:1037B00029462046FFF7F0FF208940F007002081CE
:1037C00030BD2DE9F04104460D4616461F46602DDA
:1037D00006D13B46012231462046FFF75AFE05E05E
:1037E0003B46012231462046FFF79DFE29462046F2
:1037F000FFF7D2FF208940F007002081BDE8F0816B
:1038000030B50C4600210189C9B24FF6FF7505EAB3
:103810000325154325432943018130BD2DE9F0419E
:1038200005460E4617469846002443463A4631461A
:103830002846FFF7E5FF2C894FF6F870044044F066
:1038400007044FF68F70044044F070042C81BDE8EB
:10385000F081F0B504460D4616461F463B463246FB
:1038600029462046FFF7CCFF208940F48040208184
:10387000F0BD0185828270470A46002101884FF61B
:103880008F731940114301807047F0B50C461546FF
:103890001E460021002200230189028B038C4FF673
:1038A000F877394021434FF6FC473A4040F2011780
:1038B0003A434FF6DD773B404FF6FF7707EA0617AE
:1038C0002F433B43018102830384F0BD0A4600215C
:1038D000018B4FF68F7319401143018370470A46DD
:1038E0000021018B48F6FF7319404FF6FF7303EA7E
:1038F00002231943018370470A460021818B4FF64A
:103900008F7319401143818370470A460021818BD0
:1039100048F6FF7319404FF6FF7303EA0223194379
:103920008183704721B1028842F08002028004E066
:1039300002884FF67F731A400280704721B1828857
:1039400042F00402828004E082884FF6FB731A4042
:103950008280704721B1828842F00802828004E0B0
:1039600082884FF6F7731A408280704721B18288AF
:1039700042F00102828004E082884FF6FE731A4012
:10398000828070470A460021018B4FF6F773194079
:103990001143018370470A460021018B4FF2FF73E8
:1039A00019404FF6FF7303EA02231943018370475E
:1039B0000A460021818B4FF6F7731940114381832A
:1039C00070470A460021818B4FF2FF7319404FF672
:1039D000FF7303EA02231943818370470A460021DB
:1039E000018B4FF6FB7319401143018370470A4660
:1039F0000021018B4FF6FF3319404FF6FF7303EAA6
:103A000002231943018370470A460021818B4FF638
:103A1000FB7319401143818370470A460021818B53
:103A20004FF6FF3319404FF6FF7303EA02231943A1
:103A3000818370470A460021018B4FF67F7319403E
:103A40001143018370470A460021018BC1F30E0127
:103A50004FF6FF7303EA02231943018370470A46B6
:103A60000021818B4FF67F7319401143818370478A
:103A70000A460021818BC1F30E014FF6FF7303EA62
:103A800002231943818370470A460021018C4FF6B7
:103A9000FD7319401143018470470A460021018CCF
:103AA0004FF6F77319401143018470470A4600210D
:103AB000018C4FF6DF7319404FF6FF7303EA0213D0
:103AC0001943018470470A460021018C4FF67F7329
:103AD00019404FF6FF7303EA02131943018470473C
:103AE0000A460021018C4FF6FF5319404FF6FF7331
:103AF00003EA02231943018470470A460021018C1E
:103B00004FF2FF7319404FF6FF7303EA0223194384
:103B1000018470470A460021018C4DF6FF7319405D
:103B20004FF6FF7303EA023319430184704730B53F
:103B3000002301248C40A3B2048C9C430484048C95
:103B400002FA01F5ADB22C43048430BD30B5002338
:103B500004248C40A3B2048C9C430484048C02FA99
:103B600001F5ADB22C43048430BD70B5034600208E
:103B700000241846183001258D40ACB21D8CA54399
:103B80001D8409B1082909D100EB6100056825F001
:103B9000700505600568154305600EE00D1FC5F34F
:103BA0004E052844056825F4E045056005684FF694
:103BB000FF7606EA02263543056070BD21B1028812
:103BC00042F00202028004E002884FF6FD731A40C0
:103BD0000280704721B1028842F00402028004E0B2
:103BE00002884FF6FB731A400280704721B1828829
:103BF00042F08002828004E082884FF67F731A4090
:103C00008280704702884FF6F7731A40028002885C
:103C10000A430280704782884FF68F731A40828071
:103C200082880A438280704702894FF6F8731A40EF
:103C3000028102890A430281704702894FF67F732D
:103C40001A40028102890A430281704781847047C9
:103C500081857047818670470187704781877047EB
:103C6000A0F84010704702884FF6FF431A400280C8
:103C700002880A43028070470146888E70470146D9
:103C8000088F70470146888F70470146B1F84000A1
:103C900070470146888C70470146088D7047024680
:103CA0000020138A0B400BB1012000E00020704778
:103CB000CA430282704730B5024600200023002428
:103CC000158A05EA0103958905EA010413B10CB1CF
:103CD000012000E0002030BDCA43028270477047D7
:103CE0000FB4044910B503AA029800F003FA10BCFF
:103CF0005DF814FB0C0500200FB41CB5074B06AA99
:103D00007B4469460090059800F0C5F9002069469B
:103D100000F0D4F91CBC5DF814FB0000B9030000EE
:103D20002DE9F0410E460446002020622046E1685D
:103D3000884730B3252805D0D4E901219047206A6F
:103D4000401CF2E7E168204600278847050018D0AC
:103D5000A5F14100192802D820354FF400673246FA
:103D6000294620462760FCF73DFA40B1012804D0DF
:103D7000F61D26F007060836D8E7361DD6E7284692
:103D8000DAE7206ABDE8F08170B50C460546012AE5
:103D900005D02878800600D5EA69002302E00123D7
:103DA00005E05B1C934202D2E05C0028F9D1A869CF
:103DB000E618C01AA861286A184428622846AFF39A
:103DC000008004E0D5E9012114F8010B9047B442CA
:103DD000F8D32846AFF3008070BD00002DE9F04114
:103DE0000646002410687529314616A510D0AFF399
:103DF0000080002802DA404213A507E031688A07F4
:103E000001D512A502E0490704D511A5012401E05E
:103E1000AFF3008000210A2206F1240709E0B0FB7D
:103E2000F2FCB0FBF2F302FB1C0030307854184671
:103E3000491C0028F3D123462A463046BDE8F0410C
:103E400000F0CBB8000000002D0000002B000000A7
:103E50002000000030B505460B462A4613F8014BFA
:103E600012F8010B08B1A042F8D01CB1002802D012
:103E70006D1CF1E7284630BD10B5431C02E010F878
:103E8000011B71B18107FAD14FF0013202C88C1ABF
:103E90008C4314EAC211F9D0C01A0A0603D0C01E1E
:103EA00010BDC01A10BD0A0401D0801E10BD090249
:103EB000FCD0401E10BD032A40F2308010F0030CED
:103EC00000F0158011F8013BBCF1020F624498BF6D
:103ED00011F801CB00F8013B38BF11F8013BA2F10A
:103EE000040298BF00F801CB38BF00F8013B11F085
:103EF000030300F01181083AC0F0088051F8043B38
:103F0000083A51F804CBA0E80810F5E7121D5CBF91
:103F100051F8043B40F8043BAFF30080D20724BFC4
:103F200011F8013B11F801CB48BF11F8012B24BF58
:103F300000F8013B00F801CB48BF00F8012B7047A7
:103F40004FF000020429C0F0128010F0030C00F0C2
:103F50001B80CCF1040CBCF1020F18BF00F8012B40
:103F6000A8BF20F8022BA1EB0C0100F00DB85FEA0E
:103F7000C17C24BF00F8012B00F8012B48BF00F8DA
:103F8000012B70474FF0000200B513469446964649
:103F9000203922BFA0E80C50A0E80C50B1F120015C
:103FA000BFF4F7AF090728BFA0E80C5048BF0CC00A
:103FB0005DF804EB890028BF40F8042B08BF704768
:103FC00048BF20F8022B11F0804F18BF00F8012BDA
:103FD000704770477047704770472DE9F0470D46AE
:103FE00099469246044600F124080168880604D5E3
:103FF000E06921F01001216000E00120A84201DD0C
:10400000471B00E00027A1697A1902EB0900081A92
:10401000A0612078C00602D42046AFF300800026BD
:1040200008E0D4E901211AF806009047206A401CF4
:10403000761C20624E45F4DB2078C0060AD5204667
:10404000AFF3008006E0D4E9012130209047206AD8
:10405000401C2062381EA7F10107F4DC07E0D4E918
:10406000012118F805009047206A401C2062281E94
:10407000A5F10105F3DC2046AFF3008020780006AF
:1040800002D50220BDE8F0870120FBE701694A1C48
:1040900002610878704700B58FB0CDE90131002189
:1040A000059105497944CDE9031011466846FFF7AB
:1040B00037FE0FB000BD0000E5FFFFFF0A6802F801
:1040C000010B0A60704710B5436913B1AFF300806C
:1040D00001E0FFF759FE012010BD127800F1240124
:1040E0000A7000224A700122EDE711684FF0FF329A
:1040F000E9E70000074B70B50D467B44FFF7CBFFA7
:104100000446284600F03AF810B14FF0FF3070BD79
:10411000204670BD81D9FFFF10B5203AC0F00B805A
:10412000B1E81850203AA0E81850B1E81850A0E8BB
:104130001850BFF4F5AF5FEA027C24BFB1E8185015
:10414000A0E8185044BF18C918C0BDE810405FEA85
:10415000827C24BF51F8043B40F8043B08BF704701
:10416000D20728BF31F8023B48BF11F8012B28BF06
:1041700020F8023B48BF00F8012B7047007B00F09D
:1041800080007047754600F029F8AE460500694684
:10419000534620F00700854618B020B5FDF78CFE89
:1041A000BDE820404FF000064FF000074FF0000838
:1041B0004FF0000B21F00701AC46ACE8C009ACE8B9
:1041C000C009ACE8C009ACE8C0098D467047044698
:1041D000AFF300802046FCF71AF800000048704753
:1041E000240900200000000000000000002F000053
:1041F00000000700070000147F147F1400242A7FAA
:104200002A12006264081323003649552250000028
:104210000503000000001C224100000041221C0098
:104220000014083E08140008083E0808000000A01A
:104230006000000808080808000060600000002016
:1042400010080402003E5149453E0000427F4000F4
:10425000004261514946002141454B31001814127A
:104260007F10002745454539003C4A494930000147
:104270007109050300364949493600064949291E96
:1042800000003636000000005636000000081422F8
:1042900041000014141414140000412214080002F8
:1042A0000151090600324959513E007C1211127C1D
:1042B000007F49494936003E41414122007F41414A
:1042C000221C007F49494941007F09090901003E3C
:1042D0004149497A007F0808087F0000417F41007A
:1042E000002040413F01007F08142241007F4040F0
:1042F0004040007F020C027F007F0408107F003ED8
:104300004141413E007F09090906003E4151215EBD
:10431000007F091929460046494949310001017FBA
:104320000101003F4040403F001F2040201F003F50
:104330004038403F00631408146300070870080702
:1043400000615149454300007F41410000552A5515
:104350002A55000041417F00000402010204004090
:1043600040404040000001020400002054545478B2
:10437000007F4844443800384444442000384444D2
:10438000487F00385454541800087E090102001870
:10439000A4A4A47C007F080404780000447D4000AD
:1043A000004080847D00007F102844000000417F91
:1043B0004000007C04180478007C0804047800386D
:1043C0004444443800FC242424180018242418FCF5
:1043D000007C0804040800485454542000043F445E
:1043E0004020003C4040207C001C2040201C003C21
:1043F0004030403C004428102844001CA0A0A07C71
:10440000004464544C4414141414141400000000A8
:10441000000000000000000000000000000000F8A4
:1044200000000000000000333000000000100C0607
:10443000100C0600000000000000000040C07840A2
:10444000C0784000043F04043F040400007088FC6E
:1044500008300000001820FF211E0000F008F000C6
:10446000E018000000211C031E211E0000F0088837
:10447000700000001E2123241927211010160E00A1
:10448000000000000000000000000000000000E04C
:104490001804020000000007182040000002041861
:1044A000E00000000040201807000000404080F0BD
:1044B000804040000202010F01020200000000F0F3
:1044C000000000000101011F0101010000000000C7
:1044D0000000000080B0700000000000000000003C
:1044E00000000000000101010101010100000000C5
:1044F000000000000030300000000000000000005C
:1045000080601804006018060100000000E0100838
:104510000810E000000F102020100F00001010F80D
:10452000000000000020203F20200000007008084C
:1045300008887000003028242221300000300888CC
:10454000884830000018202020110E000000C020F4
:1045500010F8000000070424243F240000F8088815
:10456000880808000019212020110E0000E01088A2
:1045700088180000000F112020110E0000380808D4
:10458000C83808000000003F0000000000708808E4
:1045900008887000001C222121221C0000E0100865
:1045A0000810E0000000312222110F00000000C0BE
:1045B000C00000000000003030000000000000805B
:1045C000000000000000806000000000000080404B
:1045D0002010080000010204081020004040404064
:1045E00040404000040404040404040000081020B7
:1045F00040800000002010080402010000704808FC
:104600000808F0000000003036010000C030C82863
:10461000E810E0000718272423140B000000C0381E
:10462000E0000000203C23020227382008F8888898
:1046300088700000203F202020110E00C0300808A4
:1046400008083800071820202010080008F808087B
:104650000810E000203F202020100F0008F8888874
:10466000E8081000203F20202320180008F8888840
:10467000E8081000203F200003000000C0300808B8
:104680000838000007182020221E020008F8080041
:104690000008F808203F210101213F20000808F808
:1046A000080800000020203F20200000000008082B
:1046B000F8080800C08080807F00000008F888C0EB
:1046C00028180800203F20012638200008F808009C
:1046D00000000000203F20202020300008F8F800D3
:1046E000F8F80800203F003F003F200008F830C0E5
:1046F0000008F808203F200007183F00E0100808D5
:104700000810E0000F10202020100F0008F8080803
:104710000808F000203F210101010000E010080816
:104720000810E0000F18242438504F0008F888883B
:1047300088887000203F2000030C3020007088081B
:10474000080838000038202121221C00180808F829
:10475000080818000000203F2000000008F80800AA
:104760000008F808001F202020201F00087888007B
:1047700000C83808000007380E010000F80800F8EB
:104780000008F800033C0700073C03000818688095
:104790008068180820302C03032C30200838C8000B
:1047A000C83808000000203F20000000100808085A
:1047B000C83808002038262120201800000000FEFC
:1047C000020202000000007F40404000000C30C0A8
:1047D00000000000000000010638C00000020202D4
:1047E000FE000000004040407F0000000000040286
:1047F00002020400000000000000000000000000B1
:1048000000000000808080808080808000020204A0
:104810000000000000000000000000000000808098
:10482000808000000019242222223F2008F8008006
:1048300080000000003F112020110E0000000080C9
:1048400080800000000E1120202011000000008058
:104850008088F800000E112020103F20000080808A
:1048600080800000001F222222221300008080F09E
:10487000888888180020203F2020000000008080C9
:1048800080808000006B94949493600008F800800E
:1048900080800000203F210000203F200080989869
:1048A000000000000020203F2020000000000080C9
:1048B0009898000000C08080807F000008F8000009
:1048C00080808000203F24022D302000000808F85E
:1048D000000000000020203F202000008080808019
:1048E00080808000203F20003F20003F80800080AB
:1048F00080800000203F210000203F2000008080B9
:1049000080800000001F202020201F008080008069
:104910008000000080FFA12020110E000000008018
:1049200080808000000E112020A0FF808080800009
:104930008080800020203F21200001000000808036
:10494000808080000033242424241900008080E02B
:10495000808000000000001F2020000080800000F8
:1049600000808000001F202020103F2080808000D9
:104970000080808000010E300806010080800080E9
:10498000008080800F300C030C300F00008080000E
:10499000808080000020312E0E3120008080800039
:1049A0000080808080818E701806010000808080E9
:1049B000808080000021302C222130000000000087
:1049C000807C020200000000003F40400000000028
:1049D000FF00000000000000FF0000000002027C59
:1049E000800000000040403F000000000006010180
:1049F0000202040400000000000000002002000089
:104A0000E000C000C0009003284A00080000002019
:104A1000300500006C010008044C0008300500203F
:104A2000580A0000C8010008011184A24A041009B4
:104A300001020304060708091CF09088012AFE05FC
:104A40003390F02B0F08012AFF1034888F602A045E
:104A5000013E44A414140C3D1E0101414181011C7E
:104A60004739010121300E2010F82C262424A434CB
:104A70002C2020C010098080BF4040201C0326202D
:104A80004040BF80300FA0A0A8E8BEA8A8A8A03CC6
:104A9000E024E828200E24272425FE2424904037F3
:104AA0003C43F8100A03050911FF118905C312E000
:104AB00012F0191151073D4428FF11AA44700B83CD
:104AC0000138448292927401831E7C44C7017D01A7
:104AD000990562FF9A01028129DC013D69419949EA
:104AE000FA0101A12A4001212A6D01212A600179E0
:104AF0001501642ADB010915072ADA01212AD801E8
:104B0000212AC0010915072A800101352A06010959
:104B100018071CE66620076A86157A861C2A860115
:104B2000180A80808686068686C0C00C0E1C060683
:104B3000D030764D2907013113601C12FE1301029B
:104B40001009C41820029E63B20E1DFF8181FFF27E
:104B50004440300F12FF180923EAAABFAAEA033F14
:104B60000B012DBC808080080115240E0C082A0141
:104B7000013149041D81808081021901B917061194
:104B80000101090C0E0A14C0012178081E214040C1
:104B900050215E08012A4DFFFFC1C10409232D08E1
:104BA000151080FCF3EFF3FC80FF80EEEEEEF5FBDA
:104BB000FF9CBEB6B6883A13B10E1408070F14084E
:104BC000971114084113140867141B087304011487
:104BD0001399161408EF151B087F081AD104135FE8
:104BE0001714080B181B0885041ABD041A6F041A41
:104BF000550401162D0102030404180806070809CC
:044C0000020406267E
:0400000508000131BD
:00000001FF
